:100000000C942A000C9447000C9447000C94470071
:100010000C9447000C9447000C9447000C94470044
:100020000C9447000C9447000C9447000C94470034
:100030000C9447000C9447000C9447000C94470024
:100040000C9447000C9447000C9447000C94470014
:100050000C94470011241FBECFE5D8E0DEBFCDBF12
:1000600011E0A0E6B0E0E4E8F5E402C005900D92EE
:10007000AE39B107D9F711E0AEE9B1E001C01D9288
:10008000AF39B107E1F70E94F9210C94C0220C941A
:100090000000EF92FF920F931F937B018C0120E0F1
:1000A00030E040E05FE40E94F50388238CF0C80153
:1000B000B70120E030E040E05FE40E94C1010E940F
:1000C00085049B01AC01205030404040504806C0A0
:1000D000C801B7010E9485049B01AC01B901CA01A6
:1000E0001F910F91FF90EF900895A0E0B0E0EBE733
:1000F000F0E00C948922DC012B01FA019C919230F2
:1001000008F439C1EB018881823008F433C194309E
:1001100069F4843009F02FC111969C91119789815F
:10012000981709F428C1A5E9B0E025C1843009F485
:1001300021C18230A9F4923009F01DC19A01AD01AC
:1001400088E0EA010990AE01E90109929E0181501F
:10015000C1F7E201898111969C918923818308C1AD
:10016000923009F407C112962D903C901397EB0141
:100170008A819B811496AD90BD90CD90DC901797AD
:10018000EC80FD800E811F819101281B390BB90184
:1001900037FF04C066277727621B730B6032710537
:1001A0000CF061C0121613066CF537014801062EDB
:1001B00004C096948794779467940A94D2F721E0C8
:1001C00030E040E050E004C0220F331F441F551FB1
:1001D0006A95D2F721503040404050402E213F21B7
:1001E00040235123211531054105510521F021E01E
:1001F00030E040E050E079018A01E628F72808293C
:1002000019293CC0232BD1F1260E371E350146019A
:10021000062E04C096948794779467940A94D2F734
:1002200021E030E040E050E004C0220F331F441FC3
:10023000551F6A95D2F721503040404050402A2146
:100240003B214C215D21211531054105510521F04E
:1002500021E030E040E050E059016A01A628B728CB
:10026000C828D9280BC0821593052CF01C01AA249C
:10027000BB24650103C0EE24FF24870111969C91E5
:10028000D20111968C91981709F445C0992339F041
:10029000A80197012A193B094C095D0906C0A6016E
:1002A00095012E193F09400B510B57FD08C01182D3
:1002B0003382228224833583468357831DC081E0A5
:1002C00081833382228288279927DC01821B930B4A
:1002D000A40BB50B84839583A683B7830DC0220F2F
:1002E000331F441F551F24833583468357838281E0
:1002F000938101979383828324813581468157813D
:10030000DA01C9010197A109B1098F5F9F4FAF4F72
:10031000BF4328F30BC0918333822282EA0CFB1C7B
:100320000C1D1D1DE482F5820683178383E0808304
:10033000248135814681578157FF1AC0C901AA27F8
:1003400097FDA095BA2F81709070A070B0705695EF
:10035000479537952795822B932BA42BB52B848318
:100360009583A683B7838281938101969383828349
:10037000DF0101C0D201CD01CDB7DEB7E2E10C94BF
:10038000A522A0E2B0E0E7ECF1E00C9495226983AD
:100390007A838B839C832D833E834F835887E9E048
:1003A000EE2EF12CEC0EFD1ECE010196B7010E943F
:1003B00076068E010F5E1F4FCE010596B8010E9492
:1003C00076068A8991E089278A8BC701B801AE0138
:1003D000475E5F4F0E9475000E94A105A096E6E06F
:1003E0000C94B122A0E2B0E0E8EFF1E00C94952289
:1003F00069837A838B839C832D833E834F835887C5
:10040000F9E0EF2EF12CEC0EFD1ECE010196B701A6
:100410000E9476068E010F5E1F4FCE010596B80131
:100420000E947606C701B801AE01475E5F4F0E9489
:1004300075000E94A105A096E6E00C94B122A0E20E
:10044000B0E0E5E2F2E00C94892269837A838B8341
:100450009C832D833E834F835887CE010196BE0136
:10046000675F7F4F0E947606CE010596BE016F5EE4
:100470007F4F0E9476069985923088F08989823074
:10048000C8F0943019F4823051F404C0843029F457
:10049000923081F485E990E0C6C0923049F420E0C2
:1004A0009A858A89981321E02A87CE010996BBC0D4
:1004B000823049F420E09A858A89981321E02A8BBA
:1004C000CE014196B0C02D843E844F8458886D88FB
:1004D0007E888F88988CEE24FF248701AA24BB2471
:1004E000650140E050E060E070E0E0E0F0E0C10174
:1004F00081709070892BE9F0E60CF71C081D191D1E
:100500009A01AB012A0D3B1D4C1D5D1D80E090E062
:10051000A0E0B0E0E614F7040805190520F481E036
:1005200090E0A0E0B0E0BA01A901480F591F6A1F8E
:100530007B1FAA0CBB1CCC1CDD1C97FE08C081E0F5
:1005400090E0A0E0B0E0A82AB92ACA2ADB2A3196B6
:10055000E032F10549F0660C771C881C991C569412
:10056000479437942794C3CFFA85EA892B893C892D
:100570008B859C85280F391F2E5F3F4F17C0CA01FE
:1005800081709070892B61F016950795F794E79428
:1005900080E090E0A0E0B0E8E82AF92A0A2B1B2BC3
:1005A00076956795579547952F5F3F4F77FDE7CF36
:1005B0000CC0440F551F661F771F17FD4160EE0CDE
:1005C000FF1C001F111F21503040403090E05907A0
:1005D00090E0690790E4790760F32B8F3C8FDB0193
:1005E000CA018F779070A070B07080349105A1051A
:1005F000B10561F447FD0AC0E114F10401051105DC
:1006000029F0405C5F4F6F4F7F4F40781A8EFE1786
:1006100011F081E08A8F4D8F5E8F6F8F78A383E01A
:10062000898FCE0149960E94A105A096E2E10C9423
:10063000A522A8E1B0E0EFE1F3E00C9491226983F8
:100640007A838B839C832D833E834F835887B9E0C5
:10065000EB2EF12CEC0EFD1ECE010196B7010E948F
:1006600076068E010F5E1F4FCE010596B8010E94DF
:1006700076062985223008F47EC03989323010F49C
:10068000B8017CC08A859A8989278A87243011F02D
:10069000223031F4231709F06EC065E970E06EC0B6
:1006A000343039F41D861E861F86188A1C861B86E8
:1006B00004C0323021F484E08987B7015FC02B8504
:1006C0003C858B899C89281B390B3C872B87ED84C3
:1006D000FE840F851889AD88BE88CF88D88CEA142F
:1006E000FB040C051D0540F4EE0CFF1C001F111F40
:1006F000215030403C872B8720E030E040E050E044
:1007000080E090E0A0E0B0E460E070E0EA14FB0478
:100710000C051D0540F0282B392B4A2B5B2BEA18C2
:10072000FB080C091D09B695A79597958795EE0CC2
:10073000FF1C001F111F6F5F7F4F6F31710531F775
:10074000DA01C9018F779070A070B0708034910584
:10075000A105B10561F427FD0AC0E114F10401050A
:10076000110529F0205C3F4F4F4F5F4F20782D87B8
:100770003E874F87588BBE01675F7F4FCB010E943A
:10078000A1056896EAE00C94AD22A8E1B0E0EBEC9C
:10079000F3E00C94952269837A838B839C832D8369
:1007A0003E834F83588789E0E82EF12CEC0EFD1E26
:1007B000CE010196B7010E9476068E010F5E1F4F93
:1007C000CE010596B8010E9476068985823040F0F8
:1007D0008989823028F0C701B8010E94EE0601C065
:1007E0008FEF6896E6E00C94B122A8E1B0E0EBEF61
:1007F000F3E00C94952269837A838B839C832D8309
:100800003E834F83588789E0E82EF12CEC0EFD1EC5
:10081000CE010196B7010E9476068E010F5E1F4F32
:10082000CE010596B8010E9476068985823040F097
:100830008989823028F0C701B8010E94EE0601C004
:100840008FEF6896E6E00C94B122A8E1B0E0EBE20D
:10085000F4E00C94952269837A838B839C832D83A7
:100860003E834F83588789E0E82EF12CEC0EFD1E65
:10087000CE010196B7010E9476068E010F5E1F4FD2
:10088000CE010596B8010E9476068985823040F037
:100890008989823028F0C701B8010E94EE0601C0A4
:1008A00081E06896E6E00C94B122A8E1B0E0EBE5C7
:1008B000F4E00C94952269837A838B839C832D8347
:1008C0003E834F83588789E0E82EF12CEC0EFD1E05
:1008D000CE010196B7010E9476068E010F5E1F4F72
:1008E000CE010596B8010E9476068985823040F0D7
:1008F0008989823028F0C701B8010E94EE0601C044
:1009000081E06896E6E00C94B122ACE0B0E0EBE860
:10091000F4E00C94992269837A838B839C83CE01C3
:100920000196BE016B5F7F4F0E9476068D818230FB
:1009300061F1823050F1843021F48E81882351F1AD
:100940002EC02F81388537FD20C06E812F313105B3
:100950001CF06623F9F023C08EE190E0821B930B1C
:1009600029853A854B855C8504C056954795379512
:1009700027958A95D2F76623B1F05095409530952A
:1009800021953F4F4F4F5F4F0EC020E030E040E0D9
:1009900050E009C02FEF3FEF4FEF5FE704C020E0CA
:1009A00030E040E050E8B901CA012C96E2E00C9436
:1009B000B522A8E0B0E0EFEDF4E00C9491227B01C9
:1009C0008C01611571058105910519F482E0898317
:1009D00060C083E089838EE1C82ED12CDC82CB827B
:1009E000ED82FE820F831887C801B7010E9452056D
:1009F000FC013197F7FF3BC0222733272E1B3F0B0B
:100A000057016801022E04C0D694C794B794A794E6
:100A10000A94D2F740E050E060E070E081E090E0BE
:100A2000A0E0B0E004C0880F991FAA1FBB1F2A9541
:100A3000D2F70197A109B1098E219F21A023B123EB
:100A40000097A105B10521F041E050E060E070E0C1
:100A50004A295B296C297D294D835E836F837887C2
:100A60008EE190E08E1B9F0B9C838B8312C030978E
:100A700081F00E2E04C0EE0CFF1C001F111F0A9403
:100A8000D2F7ED82FE820F831887CE1ADF0ADC824E
:100A9000CB821A82CE0101960E94A1052896EAE037
:100AA0000C94AD22EF92FF920F931F937B018C0168
:100AB00080E0E81680E0F80681E0080780E018078B
:100AC00088F48FEFE816F1040105110531F028F0E4
:100AD00088E090E0A0E0B0E017C080E090E0A0E007
:100AE000B0E012C080E0E81680E0F80680E0080779
:100AF00081E0180728F088E190E0A0E0B0E004C0B1
:100B000080E190E0A0E0B0E020E230E040E050E0A2
:100B1000281B390B4A0B5B0B04C016950795F794FD
:100B2000E7948A95D2F7F701E356FF4F8081281B9F
:100B3000310941095109C9011F910F91FF90EF90AF
:100B40000895DF92EF92FF920F931F93FC01E480D0
:100B5000F58006811781D1808081823048F480E061
:100B600090E0A0E1B0E0E82AF92A0A2B1B2BA5C0EF
:100B7000843009F49FC0823021F4EE24FF248701E1
:100B800005C0E114F1040105110519F4E0E0F0E0FD
:100B900096C0628173819FEF623879070CF05BC069
:100BA00022E83FEF261B370B2A3131052CF020E0DD
:100BB00030E040E050E02AC0B801A701022E04C096
:100BC00076956795579547950A94D2F781E090E01E
:100BD000A0E0B0E004C0880F991FAA1FBB1F2A9590
:100BE000D2F70197A109B1098E219F21A023B1233A
:100BF0000097A105B10521F081E090E0A0E0B0E010
:100C00009A01AB01282B392B4A2B5B2BDA01C90146
:100C10008F779070A070B07080349105A105B105F8
:100C200039F427FF09C0205C3F4F4F4F5F4F04C08E
:100C3000215C3F4F4F4F5F4FE0E0F0E02030A0E0FD
:100C40003A07A0E04A07A0E45A0710F0E1E0F0E01C
:100C500079018A0127C06038710564F5FB01E1580C
:100C6000FF4FD801C7018F779070A070B0708034AB
:100C70009105A105B10539F4E7FE0DC080E490E0CF
:100C8000A0E0B0E004C08FE390E0A0E0B0E0E80EA8
:100C9000F91E0A1F1B1F17FF05C016950795F7942D
:100CA000E794319687E016950795F794E7948A952F
:100CB000D1F705C0EE24FF248701EFEFF0E06E2F9F
:100CC000679566276795902F9F77D794DD24D794F3
:100CD0008E2F8695492F462B582F5D29B701CA01C3
:100CE0001F910F91FF90EF90DF900895FC01DB01C1
:100CF000408151812281622F6F7770E0221F22276D
:100D0000221F9381892F880F822B282F30E0991F73
:100D10009927991F11969C93119721153105A9F5D3
:100D2000411551056105710511F482E037C082E873
:100D30009FEF13969C938E9312979A01AB0167E0F5
:100D4000220F331F441F551F6A95D1F783E08C9300
:100D50000DC0220F331F441F551F12968D919C9179
:100D60001397019713969C938E931297203080E0EF
:100D7000380780E0480780E4580758F314962D930D
:100D80003D934D935C93179708952F3F310579F468
:100D9000411551056105710519F484E08C9308959E
:100DA00064FF03C081E08C9312C01C9210C02F57C7
:100DB000304013963C932E93129783E08C9387E0F8
:100DC000440F551F661F771F8A95D1F770641496DC
:100DD0004D935D936D937C93179708951F93DC015A
:100DE000FB019C91923008F447C08081823008F466
:100DF00043C0943051F411961C91843099F581814F
:100E0000682F70E0611B71093FC0843021F092307F
:100E100031F48230B9F18181882389F12DC0119696
:100E20001C9111978230F1F081811817D9F4129634
:100E30002D913C911397828193818217930794F0AF
:100E400028173907BCF014968D919D910D90BC9197
:100E5000A02D2481358146815781281739074A07FB
:100E60005B0718F4112341F00AC082179307A40707
:100E7000B50740F4112319F061E070E005C06FEF91
:100E80007FEF02C060E070E0CB011F910895DF9317
:100E9000CF93CDB7DEB70E948808A7E2B0E0E7E2C3
:100EA000F0E080818F7B8C93A7E2B0E0E7E2F0E096
:100EB00080818F778C93A7E2B0E0E7E2F0E0808159
:100EC0008F7D8C93A6E2B0E0E6E2F0E08081846062
:100ED0008C93A6E2B0E0E6E2F0E0808182608C9341
:100EE000A6E2B0E0E6E2F0E0808181608C93CF91F1
:100EF000DF910895DF93CF9300D00F92CDB7DEB787
:100F000089838981877089838981282F30E03B8399
:100F10002A838A819B818330910509F470C02A81DC
:100F20003B812430310584F48A819B818130910595
:100F3000D1F12A813B81223031050CF04AC08A81EF
:100F40009B810097D1F0C8C02A813B8125303105B3
:100F500009F481C08A819B81853091050CF465C0BC
:100F60002A813B812630310509F48BC08A819B811F
:100F70008730910509F49BC0AFC0A7E2B0E0E7E27B
:100F8000F0E080818E7F8C93A7E2B0E0E7E2F0E0B2
:100F900080818D7F8C93A7E2B0E0E7E2F0E0808172
:100FA0008B7F8C9399C0A7E2B0E0E7E2F0E080810C
:100FB00081608C93A7E2B0E0E7E2F0E080818D7F72
:100FC0008C93A7E2B0E0E7E2F0E080818B7F8C9326
:100FD00083C0A7E2B0E0E7E2F0E080818E7F8C93EF
:100FE000A7E2B0E0E7E2F0E0808182608C93A7E2C4
:100FF000B0E0E7E2F0E080818B7F8C936DC0A7E2E8
:10100000B0E0E7E2F0E0808181608C93A7E2B0E09D
:10101000E7E2F0E0808182608C93A7E2B0E0E7E253
:10102000F0E080818B7F8C9357C0A7E2B0E0E7E2CD
:10103000F0E080818E7F8C93A7E2B0E0E7E2F0E001
:1010400080818D7F8C93A7E2B0E0E7E2F0E08081C1
:1010500084608C9341C0A7E2B0E0E7E2F0E08081D9
:1010600081608C93A7E2B0E0E7E2F0E080818D7FC1
:101070008C93A7E2B0E0E7E2F0E0808184608C939B
:101080002BC0A7E2B0E0E7E2F0E080818E7F8C9396
:10109000A7E2B0E0E7E2F0E0808182608C93A7E213
:1010A000B0E0E7E2F0E0808184608C9315C0A7E2B5
:1010B000B0E0E7E2F0E0808181608C93A7E2B0E0ED
:1010C000E7E2F0E0808182608C93A7E2B0E0E7E2A3
:1010D000F0E0808184608C93A6E2B0E0E6E2F0E08C
:1010E000808180648C93E6E2F0E0808182958F704D
:1010F000882F90E0817090700097A9F3E4E2F0E00F
:10110000808191810F900F900F90CF91DF91089582
:10111000DF93CF93CDB7DEB7A6E2B0E0E6E2F0E032
:10112000808180688C93CF91DF910895DF93CF9376
:10113000CDB7DEB7A6E2B0E0E6E2F0E080818F77DF
:101140008C93CF91DF910895DF93CF93CDB7DEB726
:1011500027970FB6F894DEBF0FBECDBF89836A8391
:101160004B838981883008F0EEC08A81843008F092
:10117000EAC08B81813009F06FC08A81282F30E06E
:101180003F832E838E819F818130910549F12E818D
:101190003F81223031052CF48E819F81009761F0D0
:1011A000D2C02E813F812230310571F18E819F8125
:1011B00083309105E9F1C7C0ABE3B0E0EBE3F0E0C9
:1011C0008081482F8981282F30E081E090E0022E35
:1011D00002C0880F991F0A94E2F7842B8C93B3C046
:1011E000A8E3B0E0E8E3F0E08081482F8981282F70
:1011F00030E081E090E0022E02C0880F991F0A942F
:10120000E2F7842B8C939FC0A5E3B0E0E5E3F0E028
:101210008081482F8981282F30E081E090E0022EE4
:1012200002C0880F991F0A94E2F7842B8C938BC01D
:10123000A2E3B0E0E2E3F0E08081482F8981282F2B
:1012400030E081E090E0022E02C0880F991F0A94DE
:10125000E2F7842B8C9377C08B81882309F073C0CD
:101260008A81282F30E03D832C838C819D818130C1
:10127000910559F12C813D81223031052CF48C816E
:101280009D81009769F05FC02C813D81223031053E
:1012900089F18C819D818330910509F440C053C050
:1012A000ABE3B0E0EBE3F0E08081482F8981282FA9
:1012B00030E081E090E0022E02C0880F991F0A946E
:1012C000E2F7809584238C933EC0A8E3B0E0E8E386
:1012D000F0E08081482F8981282F30E081E090E084
:1012E000022E02C0880F991F0A94E2F7809584238A
:1012F0008C9329C0A5E3B0E0E5E3F0E08081482FBE
:101300008981282F30E081E090E0022E02C0880F12
:10131000991F0A94E2F7809584238C9314C0A2E36A
:10132000B0E0E2E3F0E08081482F8981282F30E0AF
:1013300081E090E0022E02C0880F991F0A94E2F724
:10134000809584238C9327960FB6F894DEBF0FBE4A
:10135000CDBFCF91DF910895DF93CF93CDB7DEB7A7
:1013600027970FB6F894DEBF0FBECDBF89836A837F
:101370004B838981883008F0EEC08A81843008F080
:10138000EAC08B81813009F06FC08A81282F30E05C
:101390003F832E838E819F818130910549F12E817B
:1013A0003F81223031052CF48E819F81009761F0BE
:1013B000D2C02E813F812230310571F18E819F8113
:1013C00083309105E9F1C7C0AAE3B0E0EAE3F0E0B9
:1013D0008081482F8981282F30E081E090E0022E23
:1013E00002C0880F991F0A94E2F7842B8C93B3C034
:1013F000A7E3B0E0E7E3F0E08081482F8981282F60
:1014000030E081E090E0022E02C0880F991F0A941C
:10141000E2F7842B8C939FC0A4E3B0E0E4E3F0E018
:101420008081482F8981282F30E081E090E0022ED2
:1014300002C0880F991F0A94E2F7842B8C938BC00B
:10144000A1E3B0E0E1E3F0E08081482F8981282F1B
:1014500030E081E090E0022E02C0880F991F0A94CC
:10146000E2F7842B8C9377C08B81882309F073C0BB
:101470008A81282F30E03D832C838C819D818130AF
:10148000910559F12C813D81223031052CF48C815C
:101490009D81009769F05FC02C813D81223031052C
:1014A00089F18C819D818330910509F440C053C03E
:1014B000AAE3B0E0EAE3F0E08081482F8981282F99
:1014C00030E081E090E0022E02C0880F991F0A945C
:1014D000E2F7809584238C933EC0A7E3B0E0E7E376
:1014E000F0E08081482F8981282F30E081E090E072
:1014F000022E02C0880F991F0A94E2F78095842378
:101500008C9329C0A4E3B0E0E4E3F0E08081482FAD
:101510008981282F30E081E090E0022E02C0880F00
:10152000991F0A94E2F7809584238C9314C0A1E359
:10153000B0E0E1E3F0E08081482F8981282F30E09E
:1015400081E090E0022E02C0880F991F0A94E2F712
:10155000809584238C9327960FB6F894DEBF0FBE38
:10156000CDBFCF91DF910895DF93CF93CDB7DEB795
:1015700028970FB6F894DEBF0FBECDBF89836A836C
:101580008981843008F09AC08A81813099F58981F7
:10159000282F30E038872F838F81988581309105FF
:1015A000D1F02F813885223031052CF48F81988538
:1015B000009761F083C02F8138852230310581F09A
:1015C0008F8198858330910581F078C0EBE3F0E05E
:1015D0008FEF808373C0E8E3F0E08FEF80836EC00D
:1015E000E5E3F0E08FEF808369C0E2E3F0E08FEFA6
:1015F000808364C08A81882379F58981282F30E02F
:101600003E832D838D819E8181309105C9F02D818E
:101610003E81223031052CF48D819E81009761F04E
:101620004DC02D813E812230310571F08D819E812A
:101630008330910569F042C0EBE3F0E010823EC0D8
:10164000E8E3F0E010823AC0E5E3F0E0108236C053
:10165000E2E3F0E0108232C08981282F30E03C8341
:101660002B838B819C8181309105D1F02B813C8132
:10167000223031052CF48B819C81009761F01EC0D3
:101680002B813C812230310581F08B819C8183301C
:10169000910581F013C0EBE3F0E08A8180830EC0F6
:1016A000E8E3F0E08A81808309C0E5E3F0E08A8125
:1016B000808304C0E2E3F0E08A81808328960FB63D
:1016C000F894DEBF0FBECDBFCF91DF910895DF93B9
:1016D000CF93CDB7DEB728970FB6F894DEBF0FBE15
:1016E000CDBF89836A838981843008F09AC08A815A
:1016F000813099F58981282F30E038872F838F81B9
:10170000988581309105D1F02F81388522303105BF
:101710002CF48F819885009761F083C02F813885E4
:101720002230310581F08F8198858330910581F0D9
:1017300078C0EAE3F0E08FEF808373C0E7E3F0E086
:101740008FEF80836EC0E4E3F0E08FEF808369C0A9
:10175000E1E3F0E08FEF808364C08A81882379F52C
:101760008981282F30E03E832D838D819E818130B9
:101770009105C9F02D813E81223031052CF48D81F7
:101780009E81009761F04DC02D813E812230310550
:1017900071F08D819E818330910569F042C0EAE34A
:1017A000F0E010823EC0E7E3F0E010823AC0E4E3EC
:1017B000F0E0108236C0E1E3F0E0108232C08981AF
:1017C000282F30E03C832B838B819C8181309105D5
:1017D000D1F02B813C81223031052CF48B819C810E
:1017E000009761F01EC02B813C812230310581F0D1
:1017F0008B819C818330910581F013C0EAE3F0E096
:101800008A8180830EC0EAE3F0E08A81808309C088
:10181000EAE3F0E08A81808304C0EAE3F0E08A81B1
:10182000808328960FB6F894DEBF0FBECDBFCF9150
:10183000DF910895DF93CF9300D000D00F92CDB702
:10184000DEB78A836B838A81883008F06BC08B8116
:10185000843008F067C08B81282F30E03D832C83D3
:101860004C815D814130510541F18C819D818230F7
:10187000910534F42C813D812115310561F052C070
:101880004C815D814230510551F18C819D818330C5
:101890009105B9F147C0E9E3F0E08081282F30E0FD
:1018A0008A81882F90E0A90102C0559547958A95B5
:1018B000E2F7CA018170898335C0E6E3F0E08081F8
:1018C000282F30E08A81882F90E0A90102C0559529
:1018D00047958A95E2F7CA018170898323C0E3E3C3
:1018E000F0E08081282F30E08A81882F90E0A901E4
:1018F00002C0559547958A95E2F7CA0181708983A0
:1019000011C0E0E3F0E08081282F30E08A81882F49
:1019100090E0A90102C0559547958A95E2F7CA0162
:101920008170898389810F900F900F900F900F9095
:10193000CF91DF9108950F931F93DF93CF93CDB78E
:10194000DEB7C654D0400FB6F894DEBF0FBECDBF91
:10195000FE01ED5BFF4F80E090E0A0EFB1E48083FB
:101960009183A283B3838E01015C1F4FFE01ED5B67
:10197000FF4F608171818281938120E030E04AEFE6
:1019800054E40E941F02DC01CB01F80180839183A3
:10199000A283B383FE01FF9660817181828193816E
:1019A00020E030E040E85FE30E94250488232CF427
:1019B00081E090E09EAF8DAF46C0FE01FF96608152
:1019C00071818281938120E03FEF4FE757E40E94CD
:1019D000C503181664F5FE01ED5BFF4F6081718150
:1019E0008281938120E030E040E251E40E941F02B6
:1019F000DC01CB01BC01CD010E944900DC01CB011F
:101A00009EAF8DAF0FC088EC90E09CAF8BAF8BADDD
:101A10009CAD0197F1F79CAF8BAF8DAD9EAD01975B
:101A20009EAF8DAF8DAD9EAD009769F716C0FE01DC
:101A3000FF9660817181828193810E944900DC015F
:101A4000CB019EAF8DAF8DAD9EAD9AAF89AF89AD05
:101A50009AAD0197F1F79AAF89AF0E945A1980E0C9
:101A600090E0A0E8BFE38DAB9EABAFABB8AF6DA984
:101A70007EA98FA998AD20E030E04AEF54E40E949F
:101A80001F02DC01CB0189AB9AABABABBCAB69A944
:101A90007AA98BA99CA920E030E040E85FE30E948E
:101AA000250488232CF481E090E098AB8FA73FC0F9
:101AB00069A97AA98BA99CA920E03FEF4FE757E4D9
:101AC0000E94C50318164CF56DA97EA98FA998AD83
:101AD00020E030E040E251E40E941F02DC01CB0133
:101AE000BC01CD010E944900DC01CB0198AB8FA75E
:101AF0000FC088EC90E09EA78DA78DA59EA50197AD
:101B0000F1F79EA78DA78FA598A9019798AB8FA7EE
:101B10008FA598A9009769F714C069A97AA98BA91C
:101B20009CA90E944900DC01CB0198AB8FA78FA52F
:101B300098A99CA78BA78BA59CA50197F1F79CA7BB
:101B40008BA781E061E041E00E946A1980E090E0AB
:101B5000A0E8BFE38FA398A7A9A7BAA76FA178A50C
:101B600089A59AA520E030E04AEF54E40E941F02C4
:101B7000DC01CB018BA39CA3ADA3BEA36BA17CA175
:101B80008DA19EA120E030E040E85FE30E942504A3
:101B900088232CF481E090E09AA389A33FC06BA135
:101BA0007CA18DA19EA120E03FEF4FE757E40E946A
:101BB000C50318164CF56FA178A589A59AA520E054
:101BC00030E040E251E40E941F02DC01CB01BC0185
:101BD000CD010E944900DC01CB019AA389A30FC06B
:101BE00088EC90E098A38F8F8F8D98A10197F1F7E3
:101BF00098A38F8F89A19AA101979AA389A389A1FC
:101C00009AA1009769F714C06BA17CA18DA19EA138
:101C10000E944900DC01CB019AA389A389A19AA162
:101C20009E8F8D8F8D8D9E8D0197F1F79E8F8D8F5D
:101C30000E94C81980E090E0A0E0B0E4898F9A8FFC
:101C4000AB8FBC8F698D7A8D8B8D9C8D20E030E0C1
:101C50004AEF54E40E941F02DC01CB018D8B9E8B66
:101C6000AF8BB88F6D897E898F89988D20E030E0A9
:101C700040E85FE30E94250488232CF481E090E093
:101C80009C8B8B8B3FC06D897E898F89988D20E0DE
:101C90003FEF4FE757E40E94C50318164CF5698DD6
:101CA0007A8D8B8D9C8D20E030E040E251E40E94E3
:101CB0001F02DC01CB01BC01CD010E944900DC0107
:101CC000CB019C8B8B8B0FC088EC90E09A8B898B1F
:101CD00089899A890197F1F79A8B898B8B899C89DD
:101CE00001979C8B8B8B8B899C89009769F714C01B
:101CF0006D897E898F89988D0E944900DC01CB0116
:101D00009C8B8B8B8B899C89988B8F878F859889EF
:101D10000197F1F7988B8F870E94D51980E090E0AA
:101D2000A0E8BFE38B879C87AD87BE876B857C85EA
:101D30008D859E8520E030E04AEF54E40E941F022A
:101D4000DC01CB018F839887A987BA876F8178855B
:101D500089859A8520E030E040E85FE30E94250411
:101D600088232CF481E090E09E838D833FC06F81B7
:101D7000788589859A8520E03FEF4FE757E40E94F8
:101D8000C50318164CF56B857C858D859E8520E0F6
:101D900030E040E251E40E941F02DC01CB01BC01B3
:101DA000CD010E944900DC01CB019E838D830FC0D1
:101DB00088EC90E09C838B838B819C810197F1F769
:101DC0009C838B838D819E8101979E838D838D81E2
:101DD0009E81009769F714C06F81788589859A85FF
:101DE0000E944900DC01CB019E838D838D819E8101
:101DF0009A83898389819A810197F1F79A838983EC
:101E000081E080939E01CA5BDF4F0FB6F894DEBF7E
:101E10000FBECDBFCF91DF911F910F9108950F930A
:101E20001F93DF93CF93CDB7DEB7CF56D0400FB619
:101E3000F894DEBF0FBECDBFFE01E159FF4F808396
:101E400080E063E040E00E94A40881E063E040E0BD
:101E50000E94A408FE01E159FF4F808182958F7096
:101E6000982F917084E062E0492F0E94A408FE013F
:101E7000E159FF4F8081829586958770982F9170E8
:101E800085E062E0492F0E94A408FE01E159FF4F5E
:101E900080818295869586958370982F917086E0D3
:101EA00062E0492F0E94A408FE01E159FF4F8081A2
:101EB000982F991F9927991F87E062E0492F0E9468
:101EC000A40882E063E041E00E94A408FE01E55915
:101ED000FF4F80E090E0A0E8BFE380839183A2837E
:101EE000B3838E0109591F4FFE01E559FF4F6081F1
:101EF0007181828193812BEA3AEA4AE250E40E949E
:101F00001F02DC01CB01F80180839183A283B3839C
:101F1000FE01E959FF4F608171818281938120E048
:101F200030E040E85FE30E942504882334F4FE019A
:101F3000EA59FF4F81E08083E0C0FE01E959FF4F7D
:101F4000608171818281938120E030E04FE753E42A
:101F50000E94C50318160CF0C0C0FE01E559FF4FE2
:101F6000608171818281938120E030E04AE754E40E
:101F70000E941903DC01CB01FE01EE59FF4F808363
:101F80009183A283B3838E01025A1F4FFE01EE5943
:101F9000FF4F608171818281938120E030E04AEFC0
:101FA00054E40E941F02DC01CB01F801808391837D
:101FB000A283B383FE01E25AFF4F60817181828167
:101FC000938120E030E040E85FE30E94250488230D
:101FD00044F4FE01E45AFF4F81E090E09183808356
:101FE00064C0FE01E25AFF4F60817181828193815A
:101FF00020E03FEF4FE757E40E94C50318160CF0AE
:1020000043C0FE01EE59FF4F60817181828193814F
:1020100020E030E040E251E40E941F02DC01CB01ED
:102020008E01045A1F4FBC01CD010E944900DC0102
:10203000CB01F801918380831FC0FE01E65AFF4F58
:1020400088EC90E091838083FE01E65AFF4F808107
:1020500091810197F1F7FE01E65AFF4F918380834A
:10206000DE01A45ABF4FFE01E45AFF4F80819181E7
:10207000019711969C938E93FE01E45AFF4F808145
:1020800091810097D1F64BC08E01045A1F4FFE017B
:10209000E25AFF4F60817181828193810E944900E1
:1020A000DC01CB01F80191838083DE01A85ABF4F88
:1020B000FE01E45AFF4F8081918111969C938E938B
:1020C000FE01E85AFF4F808191810197F1F7FE01EF
:1020D000E85AFF4F9183808322C08E010A591F4F17
:1020E000FE01E959FF4F60817181828193810E94D5
:1020F0004900DC01CB01F8018083DE01A95ABF4F02
:10210000FE01EA59FF4F80818C93FE01E95AFF4F8F
:1021100080818A95F1F7FE01E95AFF4F808382E0C2
:1021200063E040E00E94A408FE01ED5AFF4F80E00A
:1021300090E0A0E8BFE380839183A283B3838E0104
:10214000015B1F4FFE01ED5AFF4F6081718182815B
:1021500093812BEA3AEA4AE250E40E941F02DC0132
:10216000CB01F80180839183A283B383FE01E15BFD
:10217000FF4F608171818281938120E030E040E8EF
:102180005FE30E942504882334F4FE01E25BFF4FE5
:1021900081E08083E0C0FE01E15BFF4F60817181DF
:1021A0008281938120E030E04FE753E40E94C50331
:1021B00018160CF0C0C0FE01ED5AFF4F608171810E
:1021C0008281938120E030E04AE754E40E941903C1
:1021D000DC01CB01FE01E65BFF4F80839183A2838C
:1021E000B3838E010A5B1F4FFE01E65BFF4F6081E8
:1021F00071818281938120E030E04AEF54E40E94B3
:102200001F02DC01CB01F80180839183A283B38399
:10221000FE01EA5BFF4F608171818281938120E042
:1022200030E040E85FE30E942504882344F4FE0187
:10223000EC5BFF4F81E090E09183808364C0FE01FE
:10224000EA5BFF4F608171818281938120E03FEFE3
:102250004FE757E40E94C50318160CF043C0FE0177
:10226000E65BFF4F608171818281938120E030E0E5
:1022700040E251E40E941F02DC01CB018E010C5BA5
:102280001F4FBC01CD010E944900DC01CB01F801C8
:10229000918380831FC0FE01EE5BFF4F88EC90E0CE
:1022A00091838083FE01EE5BFF4F808191810197D6
:1022B000F1F7FE01EE5BFF4F91838083DE01AC5BA3
:1022C000BF4FFE01EC5BFF4F80819181019711961A
:1022D0009C938E93FE01EC5BFF4F80819181009770
:1022E000D1F642C08E010C5B1F4FFE01EA5BFF4F2F
:1022F00060817181828193810E944900DC01CB0160
:10230000F80191838083DE01A05CBF4FFE01EC5B8E
:10231000FF4F8081918111969C938E93FE01E05C2A
:10232000FF4F808191810197F1F7FE01E05CFF4F43
:102330009183808319C08E01025B1F4FFE01E15B18
:10234000FF4F60817181828193810E944900DC018D
:10235000CB01F8018083FE01E25BFF4F80818FAFEC
:102360008FAD8A95F1F78FAF80919E01882309F494
:10237000B8C1FE01E159FF4F8081982F917084E030
:1023800062E0492F0E94A408FE01E159FF4F8081BD
:102390008695982F917085E062E0492F0E94A408ED
:1023A000FE01E159FF4F808186958695982F9170A7
:1023B00086E062E0492F0E94A408FE01E159FF4F28
:1023C0008081869586958695982F917087E062E04A
:1023D000492F0E94A40882E063E041E00E94A40823
:1023E00080E090E0A0E8BFE38BAF9CAFADAFBEAFA5
:1023F0006BAD7CAD8DAD9EAD2BEA3AEA4AE250E47E
:102400000E941F02DC01CB018FAB98AFA9AFBAAF1E
:102410006FA978AD89AD9AAD20E030E040E85FE388
:102420000E94250488231CF481E08EAB91C06FA923
:1024300078AD89AD9AAD20E030E04FE753E40E94DB
:10244000C50318160CF07BC06BAD7CAD8DAD9EAD99
:1024500020E030E04AE754E40E941903DC01CB019C
:102460008AAB9BABACABBDAB6AA97BA98CA99DA980
:1024700020E030E04AEF54E40E941F02DC01CB016F
:102480008EA79FA7A8ABB9AB6EA57FA588A999A970
:1024900020E030E040E85FE30E94250488232CF42C
:1024A00081E090E09DA78CA73FC06EA57FA588A97D
:1024B00099A920E03FEF4FE757E40E94C5031816A3
:1024C0004CF56AA97BA98CA99DA920E030E040E2E7
:1024D00051E40E941F02DC01CB01BC01CD010E942E
:1024E0004900DC01CB019DA78CA70FC088EC90E0D0
:1024F0009BA78AA78AA59BA50197F1F79BA78AA707
:102500008CA59DA501979DA78CA78CA59DA500973F
:1025100069F724C06EA57FA588A999A90E944900E2
:10252000DC01CB019DA78CA78CA59DA599A788A7A9
:1025300088A599A50197F1F799A788A70FC06FA95A
:1025400078AD89AD9AAD0E944900DC01CB018EAB1C
:102550008EA98FA38FA18A95F1F78FA382E063E004
:1025600040E00E94A40880E090E0A0E8BFE38BA3D5
:102570009CA3ADA3BEA36BA17CA18DA19EA12BEAC0
:102580003AEA4AE250E40E941F02DC01CB018F8F3D
:1025900098A3A9A3BAA36F8D78A189A19AA120E0DD
:1025A00030E040E85FE30E94250488231CF481E0CA
:1025B0008E8F91C06F8D78A189A19AA120E030E023
:1025C0004FE753E40E94C50318160CF07BC06BA1C3
:1025D0007CA18DA19EA120E030E04AE754E40E9456
:1025E0001903DC01CB018A8F9B8FAC8FBD8F6A8D65
:1025F0007B8D8C8D9D8D20E030E04AEF54E40E946D
:102600001F02DC01CB018E8B9F8BA88FB98F6E8947
:102610007F89888D998D20E030E040E85FE30E945B
:10262000250488232CF481E090E09D8B8C8B3FC0A7
:102630006E897F89888D998D20E03FEF4FE757E4C1
:102640000E94C50318164CF56A8D7B8D8C8D9D8D6F
:1026500020E030E040E251E40E941F02DC01CB01A7
:10266000BC01CD010E944900DC01CB019D8B8C8B0C
:102670000FC088EC90E09B8B8A8B8A899B8901979D
:10268000F1F79B8B8A8B8C899D8901979D8B8C8B15
:102690008C899D89009769F724C06E897F89888D10
:1026A000998D0E944900DC01CB019D8B8C8B8C891C
:1026B0009D89998B888B888999890197F1F7998BE6
:1026C000888B0FC06F8D78A189A19AA10E944900C3
:1026D000DC01CB018E8F8E8D8F878F858A95F1F7E8
:1026E0008F8780E090E0A0E0B0E48B879C87AD8787
:1026F000BE876B857C858D859E8520E030E04AEF26
:1027000054E40E941F02DC01CB018F839887A987C4
:10271000BA876F81788589859A8520E030E040E826
:102720005FE30E94250488232CF481E090E09E83DF
:102730008D833FC06F81788589859A8520E03FEF42
:102740004FE757E40E94C50318164CF56B857C854E
:102750008D859E8520E030E040E251E40E941F021A
:10276000DC01CB01BC01CD010E944900DC01CB01A1
:102770009E838D830FC088EC90E09C838B838B813C
:102780009C810197F1F79C838B838D819E810197BA
:102790009E838D838D819E81009769F714C06F8120
:1027A000788589859A850E944900DC01CB019E834A
:1027B0008D838D819E819A83898389819A810197F6
:1027C000F1F79A838983C159DF4F0FB6F894DEBFC2
:1027D0000FBECDBFCF91DF911F910F9108950F9341
:1027E0001F93DF93CF93CDB7DEB7C957D0400FB655
:1027F000F894DEBF0FBECDBFFE01E758FF4F8083C8
:1028000080E063E041E00E94A40881E063E040E0F2
:102810000E94A408FE01E758FF4F808182958F70C7
:10282000982F917084E062E0492F0E94A408FE0175
:10283000E758FF4F8081829586958770982F917019
:1028400085E062E0492F0E94A408FE01E758FF4F8F
:1028500080818295869586958370982F917086E009
:1028600062E0492F0E94A408FE01E758FF4F8081D3
:10287000982F991F9927991F87E062E0492F0E949E
:10288000A40882E063E041E00E94A408FE01EB5846
:10289000FF4F80E090E0A0E8BFE380839183A283B4
:1028A000B3838E010F581F4FFE01EB58FF4F60811D
:1028B0007181828193812BEA3AEA4AE250E40E94D4
:1028C0001F02DC01CB01F80180839183A283B383D3
:1028D000FE01EF58FF4F608171818281938120E07A
:1028E00030E040E85FE30E942504882334F4FE01D1
:1028F000E059FF4F81E08083E0C0FE01EF58FF4FB9
:10290000608171818281938120E030E04FE753E460
:102910000E94C50318160CF0C0C0FE01EB58FF4F13
:10292000608171818281938120E030E04AE754E444
:102930000E941903DC01CB01FE01E459FF4F8083A3
:102940009183A283B3838E0108591F4FFE01E4597E
:10295000FF4F608171818281938120E030E04AEFF6
:1029600054E40E941F02DC01CB01F80180839183B3
:10297000A283B383FE01E859FF4F60817181828198
:10298000938120E030E040E85FE30E942504882343
:1029900044F4FE01EA59FF4F81E090E09183808387
:1029A00064C0FE01E859FF4F60817181828193818B
:1029B00020E03FEF4FE757E40E94C50318160CF0E4
:1029C00043C0FE01E459FF4F608171818281938190
:1029D00020E030E040E251E40E941F02DC01CB0124
:1029E0008E010A591F4FBC01CD010E944900DC0134
:1029F000CB01F801918380831FC0FE01EC59FF4F8A
:102A000088EC90E091838083FE01EC59FF4F808138
:102A100091810197F1F7FE01EC59FF4F918380837B
:102A2000DE01AA59BF4FFE01EA59FF4F8081918113
:102A3000019711969C938E93FE01EA59FF4F808176
:102A400091810097D1F64BC08E010A591F4FFE01AC
:102A5000E859FF4F60817181828193810E94490012
:102A6000DC01CB01F80191838083DE01AE59BF4FB9
:102A7000FE01EA59FF4F8081918111969C938E93BC
:102A8000FE01EE59FF4F808191810197F1F7FE0120
:102A9000EE59FF4F9183808322C08E0100591F4F52
:102AA000FE01EF58FF4F60817181828193810E9406
:102AB0004900DC01CB01F8018083DE01AF59BF4F33
:102AC000FE01E059FF4F80818C93FE01EF59FF4FCB
:102AD00080818A95F1F7FE01EF59FF4F808382E0F4
:102AE00063E040E00E94A408FE01E35AFF4F80E04B
:102AF00090E0A0E8BFE380839183A283B3838E013B
:102B0000075A1F4FFE01E35AFF4F60817181828196
:102B100093812BEA3AEA4AE250E40E941F02DC0168
:102B2000CB01F80180839183A283B383FE01E75A2E
:102B3000FF4F608171818281938120E030E040E825
:102B40005FE30E942504882334F4FE01E85AFF4F16
:102B500081E08083E0C0FE01E75AFF4F6081718110
:102B60008281938120E030E04FE753E40E94C50367
:102B700018160CF0C0C0FE01E35AFF4F608171814E
:102B80008281938120E030E04AE754E40E941903F7
:102B9000DC01CB01FE01EC5AFF4F80839183A283BD
:102BA000B3838E01005B1F4FFE01EC5AFF4F608123
:102BB00071818281938120E030E04AEF54E40E94E9
:102BC0001F02DC01CB01F80180839183A283B383D0
:102BD000FE01E05BFF4F608171818281938120E083
:102BE00030E040E85FE30E942504882344F4FE01BE
:102BF000E25BFF4F81E090E09183808364C0FE013F
:102C0000E05BFF4F608171818281938120E03FEF23
:102C10004FE757E40E94C50318160CF043C0FE01AD
:102C2000EC5AFF4F608171818281938120E030E016
:102C300040E251E40E941F02DC01CB018E01025BE5
:102C40001F4FBC01CD010E944900DC01CB01F801FE
:102C5000918380831FC0FE01E45BFF4F88EC90E00E
:102C600091838083FE01E45BFF4F80819181019716
:102C7000F1F7FE01E45BFF4F91838083DE01A25BED
:102C8000BF4FFE01E25BFF4F80819181019711965A
:102C90009C938E93FE01E25BFF4F808191810097B0
:102CA000D1F64BC08E01025B1F4FFE01E05BFF4F70
:102CB00060817181828193810E944900DC01CB0196
:102CC000F80191838083DE01A65BBF4FFE01E25BCA
:102CD000FF4F8081918111969C938E93FE01E65B5C
:102CE000FF4F808191810197F1F7FE01E65BFF4F75
:102CF0009183808322C08E01085A1F4FFE01E75A3C
:102D0000FF4F60817181828193810E944900DC01C3
:102D1000CB01F8018083DE01A75BBF4FFE01E85ABB
:102D2000FF4F80818C93FE01E75BFF4F80818A9586
:102D3000F1F7FE01E75BFF4F8083FE01E758FF4F8D
:102D40008081982F917084E062E0492F0E94A4084E
:102D5000FE01E758FF4F80818695982F917085E09E
:102D600062E0492F0E94A408FE01E758FF4F8081CE
:102D700086958695982F917086E062E0492F0E9493
:102D8000A408FE01E758FF4F8081869586958695B9
:102D9000982F917087E062E0492F0E94A40882E09A
:102DA00063E041E00E94A408FE01EB5BFF4F80E07E
:102DB00090E0A0E8BFE380839183A283B3838E0178
:102DC0000F5B1F4FFE01EB5BFF4F608171818281C2
:102DD00093812BEA3AEA4AE250E40E941F02DC01A6
:102DE000CB01F80180839183A283B383FE01EF5B63
:102DF000FF4F608171818281938120E030E040E863
:102E00005FE30E942504882334F481E0FE01E05C46
:102E1000FF4F80839DC0FE01EF5BFF4F608171819A
:102E20008281938120E030E04FE753E40E94C503A4
:102E300018160CF07EC0FE01EB5BFF4F60817181C4
:102E40008281938120E030E04AE754E40E94190334
:102E5000DC01CB018CAF9DAFAEAFBFAF6CAD7DAD34
:102E60008EAD9FAD20E030E04AEF54E40E941F0297
:102E7000DC01CB0188AF99AFAAAFBBAF68AD79AD2C
:102E80008AAD9BAD20E030E040E85FE30E9425047E
:102E900088232CF481E090E09FAB8EAB3FC068ADFF
:102EA00079AD8AAD9BAD20E03FEF4FE757E40E943C
:102EB000C50318164CF56CAD7DAD8EAD9FAD20E011
:102EC00030E040E251E40E941F02DC01CB01BC0172
:102ED000CD010E944900DC01CB019FAB8EAB0FC03E
:102EE00088EC90E09DAB8CAB8CA99DA90197F1F784
:102EF0009DAB8CAB8EA99FA901979FAB8EAB8EA982
:102F00009FA9009769F72DC068AD79AD8AAD9BADDB
:102F10000E944900DC01CB019FAB8EAB8EA99FA91B
:102F20009BAB8AAB8AA99BA90197F1F79BAB8AABB4
:102F300018C0FE01EF5BFF4F608171818281938138
:102F40000E944900DC01CB01FE01E05CFF4F808361
:102F5000FE01E05CFF4F808189AB89A98A95F1F77A
:102F600089AB82E063E040E00E94A40880E090E04A
:102F7000A0E8BFE38DA79EA7AFA7B8AB6DA57EA5C0
:102F80008FA598A92BEA3AEA4AE250E40E941F0270
:102F9000DC01CB0189A79AA7ABA7BCA769A57AA535
:102FA0008BA59CA520E030E040E85FE30E9425046B
:102FB00088231CF481E088A791C069A57AA58BA518
:102FC0009CA520E030E04FE753E40E94C5031816AB
:102FD0000CF07BC06DA57EA58FA598A920E030E000
:102FE0004AE754E40E941903DC01CB018CA39DA3A2
:102FF000AEA3BFA36CA17DA18EA19FA120E030E074
:103000004AEF54E40E941F02DC01CB0188A399A37C
:10301000AAA3BBA368A179A18AA19BA120E030E06B
:1030200040E85FE30E94250488232CF481E090E0CF
:103030009F8F8E8F3FC068A179A18AA19BA120E0BC
:103040003FEF4FE757E40E94C50318164CF56CA1FB
:103050007DA18EA19FA120E030E040E251E40E94DA
:103060001F02DC01CB01BC01CD010E944900DC0143
:10307000CB019F8F8E8F0FC088EC90E09D8F8C8F3F
:103080008C8D9D8D0197F1F79D8F8C8F8E8D9F8DEF
:1030900001979F8F8E8F8E8D9F8D009769F724C02B
:1030A00068A179A18AA19BA10E944900DC01CB0102
:1030B0009F8F8E8F8E8D9F8D9B8F8A8F8A8D9B8DFC
:1030C0000197F1F79B8F8A8F0FC069A57AA58BA511
:1030D0009CA50E944900DC01CB0188A788A5898FA7
:1030E000898D8A95F1F7898F80E090E0A8ECB2E4B1
:1030F0008D8B9E8BAF8BB88F6D897E898F89988DD4
:103100002BEA3AEA4AE250E40E941F02DC01CB01BA
:10311000898B9A8BAB8BBC8B69897A898B899C89CB
:1031200020E030E040E85FE30E94250488231CF49F
:1031300081E0888B91C069897A898B899C8920E09C
:1031400030E04FE753E40E94C50318160CF07BC033
:103150006D897E898F89988D20E030E04AE754E4BC
:103160000E941903DC01CB018C879D87AE87BF8746
:103170006C857D858E859F8520E030E04AEF54E4A4
:103180000E941F02DC01CB0188879987AA87BB8731
:10319000688579858A859B8520E030E040E85FE39B
:1031A0000E94250488232CF481E090E09F838E8385
:1031B0003FC0688579858A859B8520E03FEF4FE792
:1031C00057E40E94C50318164CF56C857D858E85E5
:1031D0009F8520E030E040E251E40E941F02DC01C4
:1031E000CB01BC01CD010E944900DC01CB019F83D2
:1031F0008E830FC088EC90E09D838C838C819D81B1
:103200000197F1F79D838C838E819F8101979F8326
:103210008E838E819F81009769F724C068857985A8
:103220008A859B850E944900DC01CB019F838E83A8
:103230008E819F819B838A838A819B810197F1F78D
:103240009B838A830FC069897A898B899C890E94B4
:103250004900DC01CB01888B8889898389818A9523
:10326000F1F78983C758DF4F0FB6F894DEBF0FBE62
:10327000CDBFCF91DF911F910F910895DF93CF9331
:1032800000D0CDB7DEB79A8389830AC0E981FA817D
:1032900080810E94EF1389819A8101969A838983A4
:1032A000E981FA818081882389F70F900F90CF916F
:1032B000DF910895DF93CF93CDB7DEB780E20E9410
:1032C0000F0F80E20E940F0F80E80E940F0FCF9136
:1032D000DF910895DF93CF9300D00F92CDB7DEB783
:1032E00089836A834B838981813069F48A81813043
:1032F00051F48B81813039F480E00E940F0F80EF10
:103300000E940F0F3FC08981813069F48A81882330
:1033100051F48B81882339F480E00E940F0F80ECF8
:103320000E940F0F2FC08981813069F48A8181301A
:1033300051F48B81882339F480E00E940F0F80EED6
:103340000E940F0F1FC08981813069F48A81882310
:1033500051F48B81813039F480E00E940F0F80EDB1
:103360000E940F0F0FC08981882361F48A8188230E
:1033700049F48B81882331F480E00E940F0F80E8AC
:103380000E940F0F0F900F900F90CF91DF91089533
:10339000DF93CF93CDB7DEB780E00E940F0F81E0BF
:1033A0000E940F0FCF91DF910895DF93CF93CDB798
:1033B000DEB780E00E940F0F80E60E940F0FCF91D2
:1033C000DF910895DF93CF9300D000D0CDB7DEB763
:1033D00089836A838981282F30E03C832B838B810A
:1033E0009C818130910531F02B813C812230310567
:1033F00031F009C08A8181580E940F0F04C08A8170
:1034000081540E940F0F0F900F900F900F90CF914B
:10341000DF910895DF93CF930F92CDB7DEB7898305
:10342000898161E00E94E21980E690E00E943E19E5
:103430000F90CF91DF910895DF93CF930F92CDB787
:10344000DEB789838981813021F484E10E940F0FE6
:1034500006C08981882319F480E10E940F0F0F9024
:10346000CF91DF910895DF93CF930F92CDB7DEB761
:1034700089838981813021F48CE10E940F0F06C07D
:103480008981882319F488E10E940F0F0F90CF9152
:10349000DF910895DF93CF93CDB7DEB764970FB672
:1034A000F894DEBF0FBECDBF9A8B898B6B8B4C8B94
:1034B00080E40E940F0F188A0EC08889282F30E000
:1034C00089899A89FC01E20FF31F80810E94EF1322
:1034D00088898F5F888B8889803478F380E80E94A0
:1034E0000F0F8B896C890E94E2191F8678C08F8527
:1034F0000E94EF1380E090E0A0EAB0E48B879C8705
:10350000AD87BE876B857C858D859E8520E030E00C
:103510004AEF54E40E941F02DC01CB018F8398879D
:10352000A987BA876F81788589859A8520E030E000
:1035300040E85FE30E94250488232CF481E090E0BA
:103540009E838D833FC06F81788589859A8520E031
:103550003FEF4FE757E40E94C50318164CF56B8503
:103560007C858D859E8520E030E040E251E40E941C
:103570001F02DC01CB01BC01CD010E944900DC012E
:10358000CB019E838D830FC088EC90E09C838B835E
:103590008B819C810197F1F79C838B838D819E8128
:1035A00001979E838D838D819E81009769F714C05A
:1035B0006F81788589859A850E944900DC01CB015D
:1035C0009E838D838D819E819A83898389819A814F
:1035D0000197F1F79A8389838F858F5F8F878F8516
:1035E000883008F484CF64960FB6F894DEBF0FBE1F
:1035F000CDBFCF91DF910895EF92FF920F931F936C
:10360000DF93CF93CDB7DEB7E6970FB6F894DEBF62
:103610000FBECDBF698B7A8B8B8B9C8B1D861E86D4
:103620001F86188A19861A861B861C861D821E8292
:103630001F82188619821A821B821C821E8A69893F
:103640007A898B899C8920E030E04AE754E40E9423
:103650005504181614F001E00E8B81E01E898127B5
:10366000882309F05BC31D8A69897A898B899C89C3
:1036700020E030E040E050E00E94F503882314F0A1
:1036800081E08D8B81E09D898927882309F046C3DD
:1036900069897A898B899C8920E030E040E251E495
:1036A0000E941F02DC01CB01BC01CD010E948504F8
:1036B000DC01CB018D879E87AF87B88B8D859E857A
:1036C000AF85B8892AE030E040E050E0BC01CD0190
:1036D0000E944C22DC01CB018D879E87AF87B88B7F
:1036E00069897A898B899C890E948504DC01CB01D8
:1036F0002AE030E040E050E0BC01CD010E944C22C5
:10370000DC01CB0189879A87AB87BC8769897A8975
:103710008B899C890E9485049B01AC0189859A85CF
:10372000AB85BC8579018A01E81AF90A0A0B1B0BE3
:10373000D801C7012AE030E040E050E0BC01CD01F3
:103740000E944C22DA01C9012AE030E040E050E05A
:10375000BC01CD010E944C22DC01CB018D839E83F4
:10376000AF83B88769897A898B899C890E9485048F
:103770009B01AC018D819E81AF81B88579018A0161
:10378000E81AF90A0A0B1B0BD801C70124E630E03E
:1037900040E050E0BC01CD010E944C22DA01C90199
:1037A0002AE030E040E050E0BC01CD010E944C2214
:1037B000DC01CB0189839A83AB83BC8389819A81A5
:1037C000AB81BC818F8B988FA98FBA8F8F89988D91
:1037D000A98DBA8D85309105A105B10509F46EC09A
:1037E0008F89988DA98DBA8D86309105A105B10577
:1037F00084F58F89988DA98DBA8D82309105A105A8
:10380000B10509F44FC08F89988DA98DBA8D833089
:103810009105A105B10554F48F89988DA98DBA8DB4
:1038200081309105A105B105C9F15BC08F89988DE3
:10383000A98DBA8D83309105A105B105B9F18F89A4
:10384000988DA98DBA8D84309105A105B10591F1AE
:1038500048C08F89988DA98DBA8D87309105A105B3
:10386000B105A1F18F89988DA98DBA8D8730910509
:10387000A105B1053CF18F89988DA98DBA8D88304D
:103880009105A105B10531F18F89988DA98DBA8D6A
:1038900089309105A105B10509F123C081E30E949A
:1038A000EF131FC082E30E94EF131BC083E30E944B
:1038B000EF1317C084E30E94EF1313C085E30E9447
:1038C000EF130FC086E30E94EF130BC087E30E9443
:1038D000EF1307C088E30E94EF1303C089E30E943F
:1038E000EF13ED80FE800F811885EB8EFC8E0D8F1F
:1038F0001E8F8B8D9C8DAD8DBE8D84309105A10565
:10390000B10509F48DC08B8D9C8DAD8DBE8D85303C
:103910009105A105B1059CF58B8D9C8DAD8DBE8D5E
:1039200081309105A105B10509F46EC08B8D9C8D88
:10393000AD8DBE8D82309105A105B1055CF4EB8C97
:10394000FC8C0D8D1E8DE114F1040105110509F4A7
:103950004FC07DC08B8D9C8DAD8DBE8D823091050D
:10396000A105B10509F454C08B8D9C8DAD8DBE8D24
:1039700083309105A105B10509F44EC068C08B8D57
:103980009C8DAD8DBE8D87309105A105B10509F4E3
:1039900053C08B8D9C8DAD8DBE8D88309105A1055A
:1039A000B1059CF48B8D9C8DAD8DBE8D85309105C0
:1039B000A105B105C9F18B8D9C8DAD8DBE8D863075
:1039C0009105A105B105A1F142C08B8D9C8DAD8DF6
:1039D000BE8D88309105A105B10591F18B8D9C8D2F
:1039E000AD8DBE8D89309105A105B10569F12FC05E
:1039F00089819A81AB81BC810097A105B10539F11C
:103A000080E30E94EF1323C081E30E94EF131FC0E5
:103A100082E30E94EF131BC083E30E94EF1317C0E1
:103A200084E30E94EF1313C085E30E94EF130FC0DD
:103A300086E30E94EF130BC087E30E94EF1307C0D9
:103A400088E30E94EF1303C089E30E94EF13E98427
:103A5000FA840B851C85EF8EF8A209A31AA38F8D1B
:103A600098A1A9A1BAA184309105A105B10509F4D5
:103A700085C08F8D98A1A9A1BAA185309105A10516
:103A8000B1059CF58F8D98A1A9A1BAA181309105AE
:103A9000A105B10509F466C08F8D98A1A9A1BAA1AD
:103AA00082309105A105B1055CF4EF8CF8A009A165
:103AB0001AA1E114F1040105110509F44FC075C004
:103AC0008F8D98A1A9A1BAA182309105A105B10558
:103AD00009F44CC08F8D98A1A9A1BAA1833091059A
:103AE000A105B10509F446C060C08F8D98A1A9A1B8
:103AF000BAA187309105A105B10509F44BC08F8D9E
:103B000098A1A9A1BAA188309105A105B1059CF49D
:103B10008F8D98A1A9A1BAA185309105A105B10504
:103B200089F18F8D98A1A9A1BAA186309105A1052F
:103B3000B10561F13AC08F8D98A1A9A1BAA18830D1
:103B40009105A105B10551F18F8D98A1A9A1BAA147
:103B500089309105A105B10529F127C080E30E94B4
:103B6000EF1323C081E30E94EF131FC082E30E9482
:103B7000EF131BC083E30E94EF1317C084E30E947E
:103B8000EF1313C085E30E94EF130FC086E30E947A
:103B9000EF130BC087E30E94EF1307C088E30E9476
:103BA000EF1303C089E30E94EF13ED84FE840F85B9
:103BB0001889EBA2FCA20DA31EA38BA19CA1ADA111
:103BC000BEA184309105A105B10509F489C08BA17E
:103BD0009CA1ADA1BEA185309105A105B1059CF5C3
:103BE0008BA19CA1ADA1BEA181309105A105B1051C
:103BF00009F467C08BA19CA1ADA1BEA18230910543
:103C0000A105B1055CF4EBA0FCA00DA11EA1E1147F
:103C1000F1040105110509F44FC0DEC38BA19CA17D
:103C2000ADA1BEA182309105A105B10509F44EC038
:103C30008BA19CA1ADA1BEA183309105A105B105C9
:103C400009F449C0C9C38BA19CA1ADA1BEA1873015
:103C50009105A105B10509F452C08BA19CA1ADA1AC
:103C6000BEA188309105A105B1059CF48BA19CA152
:103C7000ADA1BEA185309105A105B105B1F18BA122
:103C80009CA1ADA1BEA186309105A105B10591F120
:103C9000A3C38BA19CA1ADA1BEA188309105A105B4
:103CA000B10591F18BA19CA1ADA1BEA18930910577
:103CB000A105B10571F190C381E790E00E943E1922
:103CC0008BC384E790E00E943E1986C387E790E0AB
:103CD0000E943E1981C38AE790E00E943E197CC38E
:103CE0008DE790E00E943E1977C380E890E00E9443
:103CF0003E1972C383E890E00E943E196DC386E8C6
:103D000090E00E943E1968C389E890E00E943E1945
:103D100063C38CE890E00E943E195EC369897A898A
:103D20008B899C8920E030E040E050E00E9425042F
:103D300088230CF051C389899A89AB89BC89B05812
:103D4000898B9A8BAB8BBC8B69897A898B899C898F
:103D500020E030E040E251E40E941F02DC01CB0190
:103D6000BC01CD010E948504DC01CB018D879E87BB
:103D7000AF87B88B8D859E85AF85B8892AE030E006
:103D800040E050E0BC01CD010E944C22DC01CB019F
:103D90008D879E87AF87B88B69897A898B899C8943
:103DA0000E948504DC01CB012AE030E040E050E0D5
:103DB000BC01CD010E944C22DC01CB0189879A878E
:103DC000AB87BC8769897A898B899C890E94850425
:103DD0009B01AC0189859A85AB85BC8579018A01F7
:103DE000E81AF90A0A0B1B0BD801C7012AE030E0D8
:103DF00040E050E0BC01CD010E944C22DA01C90133
:103E00002AE030E040E050E0BC01CD010E944C22AD
:103E1000DC01CB018D839E83AF83B88769897A8962
:103E20008B899C890E9485049B01AC018D819E81B8
:103E3000AF81B88579018A01E81AF90A0A0B1B0BD0
:103E4000D801C70124E630E040E050E0BC01CD01DC
:103E50000E944C22DA01C9012AE030E040E050E043
:103E6000BC01CD010E944C22DC01CB0189839A83E5
:103E7000AB83BC838DE20E94EF1389819A81AB8171
:103E8000BC818FA398A7A9A7BAA78FA198A5A9A518
:103E9000BAA585309105A105B10509F46EC08FA1C1
:103EA00098A5A9A5BAA586309105A105B10584F507
:103EB0008FA198A5A9A5BAA582309105A105B10544
:103EC00009F44FC08FA198A5A9A5BAA58330910583
:103ED000A105B10554F48FA198A5A9A5BAA5813073
:103EE0009105A105B105C9F15BC08FA198A5A9A550
:103EF000BAA583309105A105B105B9F18FA198A5A7
:103F0000A9A5BAA584309105A105B10591F148C0D4
:103F10008FA198A5A9A5BAA587309105A105B105DE
:103F2000A1F18FA198A5A9A5BAA587309105A105F2
:103F3000B1053CF18FA198A5A9A5BAA58830910536
:103F4000A105B10531F18FA198A5A9A5BAA5893020
:103F50009105A105B10509F123C081E30E94EF138A
:103F60001FC082E30E94EF131BC083E30E94EF1384
:103F700017C084E30E94EF1313C085E30E94EF1380
:103F80000FC086E30E94EF130BC087E30E94EF137C
:103F900007C088E30E94EF1303C089E30E94EF1378
:103FA000ED80FE800F811885EBA6FCA60DA71EA74D
:103FB0008BA59CA5ADA5BEA584309105A105B10535
:103FC00009F48DC08BA59CA5ADA5BEA58530910536
:103FD000A105B1059CF58BA59CA5ADA5BEA581301D
:103FE0009105A105B10509F46EC08BA59CA5ADA5F1
:103FF000BEA582309105A105B1055CF4EBA4FCA43B
:104000000DA51EA5E114F1040105110509F44FC029
:104010007DC08BA59CA5ADA5BEA582309105A1054F
:10402000B10509F454C08BA59CA5ADA5BEA58330F0
:104030009105A105B10509F44EC068C08BA59CA5EA
:10404000ADA5BEA587309105A105B10509F453C002
:104050008BA59CA5ADA5BEA588309105A105B10590
:104060009CF48BA59CA5ADA5BEA585309105A105A9
:10407000B105C9F18BA59CA5ADA5BEA5863091055E
:10408000A105B105A1F142C08BA59CA5ADA5BEA51A
:1040900088309105A105B10591F18BA59CA5ADA531
:1040A000BEA589309105A105B10569F12FC08981AF
:1040B0009A81AB81BC810097A105B10539F180E3FC
:1040C0000E94EF1323C081E30E94EF131FC082E31D
:1040D0000E94EF131BC083E30E94EF1317C084E319
:1040E0000E94EF1313C085E30E94EF130FC086E315
:1040F0000E94EF130BC087E30E94EF1307C088E311
:104100000E94EF1303C089E30E94EF13E984FA844D
:104110000B851C85EFA6F8AA09AB1AAB8FA598A949
:10412000A9A9BAA984309105A105B10509F485C0F2
:104130008FA598A9A9A9BAA985309105A105B105AE
:104140009CF58FA598A9A9A9BAA981309105A105C7
:10415000B10509F466C08FA598A9A9A9BAA98230AA
:104160009105A105B1055CF4EFA4F8A809A91AA965
:10417000E114F1040105110509F44FC075C08FA5C4
:1041800098A9A9A9BAA982309105A105B10509F498
:104190004CC08FA598A9A9A9BAA983309105A105FA
:1041A000B10509F446C060C08FA598A9A9A9BAA90C
:1041B00087309105A105B10509F44BC08FA598A9D9
:1041C000A9A9BAA988309105A105B1059CF48FA5CC
:1041D00098A9A9A9BAA985309105A105B10589F1C8
:1041E0008FA598A9A9A9BAA986309105A105B105FD
:1041F00061F13AC08FA598A9A9A9BAA988309105FB
:10420000A105B10551F18FA598A9A9A9BAA989302D
:104210009105A105B10529F127C080E30E94EF13A4
:1042200023C081E30E94EF131FC082E30E94EF13BB
:104230001BC083E30E94EF1317C084E30E94EF13B7
:1042400013C085E30E94EF130FC086E30E94EF13B3
:104250000BC087E30E94EF1307C088E30E94EF13AF
:1042600003C089E30E94EF13ED84FE840F85188953
:10427000EBAAFCAA0DAB1EAB8BA99CA9ADA9BEA94C
:1042800084309105A105B10509F489C08BA99CA9C9
:10429000ADA9BEA985309105A105B1059CF58BA9F5
:1042A0009CA9ADA9BEA981309105A105B10509F46C
:1042B00067C08BA99CA9ADA9BEA982309105A105B3
:1042C000B1055CF4EBA8FCA80DA91EA9E114F1044A
:1042D0000105110509F44FC07FC08BA99CA9ADA9A8
:1042E000BEA982309105A105B10509F44EC08BA984
:1042F0009CA9ADA9BEA983309105A105B10509F41A
:1043000049C06AC08BA99CA9ADA9BEA987309105F7
:10431000A105B10509F452C08BA99CA9ADA9BEA9FC
:1043200088309105A105B1059CF48BA99CA9ADA984
:10433000BEA985309105A105B105B1F18BA99CA954
:10434000ADA9BEA986309105A105B10591F144C082
:104350008BA99CA9ADA9BEA988309105A105B1057D
:1043600091F18BA99CA9ADA9BEA989309105A105A0
:10437000B10571F131C081E790E00E943E192CC077
:1043800084E790E00E943E1927C087E790E00E94F2
:104390003E1922C08AE790E00E943E191DC08DE7B9
:1043A00090E00E943E1918C080E890E00E943E19FB
:1043B00013C083E890E00E943E190EC086E890E0AA
:1043C0000E943E1909C089E890E00E943E1904C08D
:1043D0008CE890E00E943E19E6960FB6F894DEBF96
:1043E0000FBECDBFCF91DF911F910F91FF90EF9046
:1043F0000895DF93CF9300D000D000D0CDB7DEB7C3
:1044000080E060E040E00E94AC090E94470782E043
:1044100061E00E94670B83E061E00E94670B0E94ED
:104420009B0C81E061E00E94E21980E00E947A0723
:104430009E838D838D819E819C01220F331F220FCD
:10444000331FC901880F991F880F991F820F931F6F
:10445000CC01A0E0B0E0BC01CD010E94D904DC0198
:10446000CB01BC01CD0120E030E040E854E40E94E3
:104470001903DC01CB0189839A83AB83BC838981D7
:104480009A81AB81BC81BC01CD010E94FC1A8FE8EE
:1044900090E00E943E19FFCF97FB092E05260ED013
:1044A00057FD04D014D00AD0001C38F45095409524
:1044B000309521953F4F4F4F5F4F0895F6F79095F8
:1044C0008095709561957F4F8F4F9F4F0895A1E222
:1044D0001A2EAA1BBB1BFD010DC0AA1FBB1FEE1F7E
:1044E000FF1FA217B307E407F50720F0A21BB30BC9
:1044F000E40BF50B661F771F881F991F1A9469F745
:1045000060957095809590959B01AC01BD01CF01A0
:1045100008952F923F924F925F926F927F928F9267
:104520009F92AF92BF92CF92DF92EF92FF920F9342
:104530001F93CF93DF93CDB7DEB7CA1BDB0B0FB64C
:10454000F894DEBF0FBECDBF09942A883988488809
:104550005F846E847D848C849B84AA84B984C8849F
:10456000DF80EE80FD800C811B81AA81B981CE0F96
:10457000D11D0FB6F894DEBF0FBECDBFED0108957B
:04458000F894FFCFDD
:104584002020202020202020202020202020202027
:10459400002E30002E31002E32002E33002E340037
:1045A4002E35002E36002E37002E38002E390020EE
:1045B400566F6C740000000000000000000001024F
:1045C40002030303030404040404040404050505AA
:1045D4000505050505050505050505050506060684
:1045E4000606060606060606060606060606060667
:1045F4000606060606060606060606060607070754
:104604000707070707070707070707070707070736
:104614000707070707070707070707070707070726
:104624000707070707070707070707070707070716
:104634000707070707070707070707070708080803
:1046440008080808080808080808080808080808E6
:1046540008080808080808080808080808080808D6
:1046640008080808080808080808080808080808C6
:1046740008080808080808080808080808080808B6
:1046840008080808080808080808080808080808A6
:104694000808080808080808080808080808080896
:1046A4000808080808080808080808080808080886
:0E46B400080808080808080808080808080090
:00000001FF
