:100000000C942A000C943F000C943F000C943F0089
:100010000C943F000C943F000C943F000C943F0064
:100020000C943F000C943F000C943F000C943F0054
:100030000C943F000C943F000C943F000C943F0044
:100040000C943F000C943F000C943F000C943F0034
:100050000C943F0011241FBECFE5D8E0DEBFCDBF1A
:1000600010E0A0E6B0E0EEE0F6E002C005900D92F0
:10007000A238B107D9F70E94E9020C9405030C9449
:100080000000382F883008F075C0643008F072C066
:100090004130B1F5613099F0613030F06230D1F02B
:1000A000633009F067C021C02BB381E090E002C04B
:1000B000880F991F3A95E2F7282B2BBB089528B398
:1000C00081E090E002C0880F991F3A95E2F7282B53
:1000D00028BB089525B381E090E002C0880F991FE6
:1000E0003A95E2F7282B25BB089522B381E090E0F2
:1000F00002C0880F991F3A95E2F7282B22BB08957A
:100100004423C1F5613099F0613028F06230D9F0B4
:10011000633081F524C02BB381E090E002C0880FEA
:10012000991F3A95E2F7809582238BBB089528B3F7
:1001300081E090E002C0880F991F3A95E2F7809520
:10014000822388BB089525B381E090E002C0880F28
:10015000991F3A95E2F78095822385BB089522B3D3
:1001600081E090E002C0880F991F3A95E2F78095F0
:10017000822382BB0895382F883008F075C0643020
:1001800008F072C04130B1F5613099F0613030F063
:100190006230D1F0633009F067C021C02AB381E03A
:1001A00090E002C0880F991F3A95E2F7282B2ABBEE
:1001B000089527B381E090E002C0880F991F3A9517
:1001C000E2F7282B27BB089524B381E090E002C01A
:1001D000880F991F3A95E2F7282B24BB089521B385
:1001E00081E090E002C0880F991F3A95E2F7282B32
:1001F00021BB08954423C1F5613099F0613028F0A6
:100200006230D9F0633081F524C02AB381E090E0F8
:1002100002C0880F991F3A95E2F7809582238ABB26
:10022000089527B381E090E002C0880F991F3A95A6
:10023000E2F78095822387BB089524B381E090E0A4
:1002400002C0880F991F3A95E2F78095822384BBFC
:10025000089521B381E090E002C0880F991F3A957C
:10026000E2F78095822381BB08958430D0F5613018
:10027000A9F4813051F0813028F0823049F0833088
:1002800081F509C08FEF8BBB08958FEF88BB089570
:100290008FEF85BB08958FEF82BB0895662389F4A5
:1002A000813049F0813028F0823039F08330C9F450
:1002B00006C01BBA089518BA089515BA089512BA5F
:1002C0000895813049F0813028F0823039F0833050
:1002D00041F406C06BBB089568BB089565BB0895E3
:1002E00062BB08958430B0F56130A9F4813051F0DB
:1002F000813028F0823049F0833061F509C08FEFFA
:100300008ABB08958FEF87BB08958FEF84BB089554
:100310008FEF81BB0895662389F4813049F08130E5
:1003200028F0823039F08330A9F406C01ABA089553
:1003300017BA089514BA089511BA0895813039F0A2
:10034000813028F0823019F0833021F402C06ABB7A
:1003500008956ABB0895282F883000F56430F0F4C2
:10036000613049F0613028F0623039F06330B1F427
:100370000DC089B303C086B301C083B390E002C04F
:10038000959587952A95E2F78170089580B390E05E
:1003900002C0959587952A95E2F781700895DF92BE
:1003A000EF92FF920F931F93CF93DF93EE24C0E061
:1003B000D0E0DC2E8C2F60E040E00E9441008E01F6
:1003C0000F581F4F84E0F82E8F2D60E00E94AB0184
:1003D000882341F4F801E0808F2D60E00E94AB019A
:1003E0008823D1F3F3940C5F1F4FF8E0FF1661F7F9
:1003F0008D2D60E041E00E9441002196C430D1057E
:10040000C1F68E2DDF91CF911F910F91FF90EF904C
:10041000DF9008951F93182F80E063E041E00E9471
:10042000410081E063E040E00E94410082E063E03F
:1004300041E00E94410082E0612F0E94350182E08C
:1004400063E040E00E94410080EA9FE00197F1F7FD
:1004500082E063E041E00E94410080ED97E0019777
:10046000F1F71F9108951F93CF93DF93EC0110E0F4
:1004700003C01F5F0E940A02FE01E10FF11D80818F
:100480008823B9F7DF91CF911F9108951F93182FFB
:1004900080E063E040E00E94410081E063E040E0F2
:1004A0000E94410082E063E041E00E94410082E05E
:1004B000612F0E94350182E063E040E00E9441002C
:1004C00080EA9FE00197F1F782E063E041E00E945B
:1004D000410080ED97E00197F1F71F910895813079
:1004E00019F0823051F405C0862F81580E944602CF
:1004F0000895862F81540E944602089561E00E946B
:100500006F0280E690E00E9433020895EF92FF921E
:100510000F931F93CF93DF938C01F62EE42E80E48C
:100520000E944602C0E0D0E0F801EC0FFD1F808180
:100530000E940A022196C034D105B1F780E80E94DA
:1005400046028F2D6E2D0E946F0210E0C0E1D7E2AF
:10055000812F0E940A02CE010197F1F71F5F183028
:10056000B9F7DF91CF911F910F91FF90EF90089510
:10057000EF92FF920F931F9380E69AEE0197F1F7A7
:1005800082E00E94460280EAE82E8FE0F82EC70142
:100590000197F1F788E30E94460200ED17E0C801D9
:1005A0000197F1F78EE00E944602C8010197F1F72A
:1005B00081E00E944602C7010197F1F786E00E94A0
:1005C0004602C7010197F1F71F910F91FF90EF903D
:1005D000089580E06FE00E94720180E060EF0E9469
:1005E000350182E061E00E94720183E061E00E94D7
:1005F00072010E94B80280E80E9446020E94CF0168
:0E0600008823E1F30E940A02F9CFF894FFCF9D
:10060E0020202020202020202020202020202020DC
:10061E00003132332F3435362A3738392B63303D9B
:02062E002D009D
:00000001FF
