:100000000C942A000C943F000C943F000C943F0089
:100010000C943F000C943F000C943F000C943F0064
:100020000C943F000C943F000C943F000C943F0054
:100030000C943F000C943F000C943F000C943F0044
:100040000C943F000C943F000C943F000C943F0034
:100050000C943F0011241FBECFE5D8E0DEBFCDBF1A
:1000600010E0A0E6B0E0ECE9F5E002C005900D92EA
:10007000AE3BB107D9F70E94A1020C94CC020C94BC
:100080000000382F883008F075C0643008F072C066
:100090004130B1F5613099F0613030F06230D1F02B
:1000A000633009F067C021C02BB381E090E002C04B
:1000B000880F991F3A95E2F7282B2BBB089528B398
:1000C00081E090E002C0880F991F3A95E2F7282B53
:1000D00028BB089525B381E090E002C0880F991FE6
:1000E0003A95E2F7282B25BB089522B381E090E0F2
:1000F00002C0880F991F3A95E2F7282B22BB08957A
:100100004423C1F5613099F0613028F06230D9F0B4
:10011000633081F524C02BB381E090E002C0880FEA
:10012000991F3A95E2F7809582238BBB089528B3F7
:1001300081E090E002C0880F991F3A95E2F7809520
:10014000822388BB089525B381E090E002C0880F28
:10015000991F3A95E2F78095822385BB089522B3D3
:1001600081E090E002C0880F991F3A95E2F78095F0
:10017000822382BB0895382F883008F075C0643020
:1001800008F072C04130B1F5613099F0613030F063
:100190006230D1F0633009F067C021C02AB381E03A
:1001A00090E002C0880F991F3A95E2F7282B2ABBEE
:1001B000089527B381E090E002C0880F991F3A9517
:1001C000E2F7282B27BB089524B381E090E002C01A
:1001D000880F991F3A95E2F7282B24BB089521B385
:1001E00081E090E002C0880F991F3A95E2F7282B32
:1001F00021BB08954423C1F5613099F0613028F0A6
:100200006230D9F0633081F524C02AB381E090E0F8
:1002100002C0880F991F3A95E2F7809582238ABB26
:10022000089527B381E090E002C0880F991F3A95A6
:10023000E2F78095822387BB089524B381E090E0A4
:1002400002C0880F991F3A95E2F78095822384BBFC
:10025000089521B381E090E002C0880F991F3A957C
:10026000E2F78095822381BB08958430D0F5613018
:10027000A9F4813051F0813028F0823049F0833088
:1002800081F509C08FEF8BBB08958FEF88BB089570
:100290008FEF85BB08958FEF82BB0895662389F4A5
:1002A000813049F0813028F0823039F08330C9F450
:1002B00006C01BBA089518BA089515BA089512BA5F
:1002C0000895813049F0813028F0823039F0833050
:1002D00041F406C06BBB089568BB089565BB0895E3
:1002E00062BB0895843048F56130A9F4813051F043
:1002F000813028F0823049F08330F9F409C08FEF63
:100300008ABB08958FEF87BB08958FEF84BB089554
:100310008FEF81BB0895662381F4813049F08130ED
:1003200028F0823039F0833041F406C01ABA0895BB
:1003300017BA089514BA089511BA0895282F88306D
:1003400000F56430F0F4613049F0613028F062303B
:1003500039F06330B1F40DC089B303C086B301C076
:1003600083B390E002C0959587952A95E2F7817056
:10037000089580B390E002C0959587952A95E2F79D
:10038000817008951F93182F80E063E041E00E9480
:10039000410081E063E040E00E94410082E063E0D0
:1003A00041E00E94410082E0612F0E94350182E01D
:1003B00063E040E00E94410080EA9FE00197F1F78E
:1003C00082E063E041E00E94410080ED97E0019708
:1003D000F1F71F9108951F93CF93DF93EC0110E085
:1003E00003C01F5F0E94C201FE01E10FF11D808169
:1003F0008823B9F7DF91CF911F9108951F93182F8C
:1004000080E063E040E00E94410081E063E040E082
:100410000E94410082E063E041E00E94410082E0EE
:10042000612F0E94350182E063E040E00E944100BC
:1004300080EA9FE00197F1F782E063E041E00E94EB
:10044000410080ED97E00197F1F71F910895813009
:1004500019F0823051F405C0862F81580E94FE01A8
:100460000895862F81540E94FE01089561E00E9444
:10047000270280E690E00E94EB010895EF92FF9240
:100480000F931F93CF93DF938C01F62EE42E80E41D
:100490000E94FE01C0E0D0E0F801EC0FFD1F80815A
:1004A0000E94C2012196C034D105B1F780E80E94B4
:1004B000FE018F2D6E2D0E94270210E0C0E1D7E2D1
:1004C000812F0E94C201CE010197F1F71F5F183002
:1004D000B9F7DF91CF911F910F91FF90EF900895A1
:1004E000EF92FF920F931F9380E69AEE0197F1F738
:1004F00082E00E94FE0180EAE82E8FE0F82EC7011C
:100500000197F1F788E30E94FE0100ED17E0C801B2
:100510000197F1F78EE00E94FE01C8010197F1F703
:1005200081E00E94FE01C7010197F1F786E00E9479
:10053000FE01C7010197F1F71F910F91FF90EF9016
:100540000895CF93DF9382E061E00E94720183E01F
:1005500061E00E9472010E947002C8ECD0E080E865
:100560000E94FE0181E790E00E94EB0184EF91E0A0
:10057000FE013197F1F70197D9F780E80E94FE015B
:1005800087E790E00E94EB0184EF91E0FE01319754
:0C059000F1F70197D9F7E3CFF894FFCF03
:10059C00202020202020202020202020202020204F
:1005AC000048454C4C4F0020202020200002001712
:1005BC00151F0000000000000407040C18040A00BA
:1005CC00151F000000060E04040404000000000EB9
:1005DC000A0E0204080000000007040C18000004B6
:0E05EC000A1B0A0400000007041F00000000A4
:00000001FF
