:100000000C942A000C9434000C9434000C943400AA
:100010000C9434000C9434000C9434000C94340090
:100020000C9434000C9434000C9434000C94340080
:100030000C9434000C9434000C9434000C94340070
:100040000C9434000C9434000C9434000C94340060
:100050000C94340011241FBECFE5D8E0DEBFCDBF25
:100060000E94D3020C942B030C940000382F88308C
:1000700008F075C0643008F072C04130B1F56130ED
:1000800099F0613030F06230D1F0633009F067C030
:1000900021C02BB381E090E002C0880F991F3A95F0
:1000A000E2F7282B2BBB089528B381E090E002C033
:1000B000880F991F3A95E2F7282B28BB089525B39E
:1000C00081E090E002C0880F991F3A95E2F7282B53
:1000D00025BB089522B381E090E002C0880F991FEC
:1000E0003A95E2F7282B22BB08954423C1F56130ED
:1000F00099F0613028F06230D9F0633081F524C086
:100100002BB381E090E002C0880F991F3A95E2F787
:10011000809582238BBB089528B381E090E002C0D4
:10012000880F991F3A95E2F78095822388BB08953E
:1001300025B381E090E002C0880F991F3A95E2F75D
:100140008095822385BB089522B381E090E002C0B0
:10015000880F991F3A95E2F78095822382BB089514
:10016000382F883008F075C0643008F072C0413014
:10017000B1F5613099F0613030F06230D1F0633028
:1001800009F067C021C02AB381E090E002C0880F67
:10019000991F3A95E2F7282B2ABB089527B381E0EF
:1001A00090E002C0880F991F3A95E2F7282B27BBF1
:1001B000089524B381E090E002C0880F991F3A951A
:1001C000E2F7282B24BB089521B381E090E002C020
:1001D000880F991F3A95E2F7282B21BB08954423F5
:1001E000C1F5613099F0613028F06230D9F06330A8
:1001F00081F524C02AB381E090E002C0880F991FE6
:100200003A95E2F7809582238ABB089527B381E06F
:1002100090E002C0880F991F3A95E2F780958223FB
:1002200087BB089524B381E090E002C0880F991F36
:100230003A95E2F78095822384BB089521B381E04B
:1002400090E002C0880F991F3A95E2F780958223CB
:1002500081BB0895843048F56130A9F4813051F0B4
:10026000813028F0823049F08330F9F409C08FEFF3
:100270008BBB08958FEF88BB08958FEF85BB0895E2
:100280008FEF82BB0895662381F4813049F081307D
:1002900028F0823039F0833041F406C01BBA08954B
:1002A00018BA089515BA089512BA0895843048F519
:1002B0006130A9F4813051F0813028F0823049F06A
:1002C0008330F9F409C08FEF8ABB08958FEF87BBA5
:1002D00008958FEF84BB08958FEF81BB0895662347
:1002E00081F4813049F0813028F0823039F0833058
:1002F00041F406C01ABA089517BA089514BA0895B9
:1003000011BA0895282F883000F56430F0F4613078
:1003100049F0613028F0623039F06330B1F40DC03B
:1003200089B303C086B301C083B390E002C0959542
:1003300087952A95E2F78170089580B390E002C016
:10034000959587952A95E2F7817008951F93CF932D
:10035000DF9380E060E041E00E94360087E060E0EB
:1003600041E00E94360011E0C0E4DCE9812F60E04A
:1003700041E00E943600CE010197F1F7812F60E045
:1003800040E00E9436001F5F173081F716E0C0E49E
:10039000DCE9812F60E041E00E943600CE01019748
:1003A000F1F7812F60E040E00E943600115089F79C
:1003B000DF91CF911F9108951F93CF93DF9310E0AA
:1003C000C0E6DAEE812F60E041E00E943600CE0107
:1003D0000197F1F71F5F1830A9F717E0C0E6DAEED2
:1003E000812F60E040E00E943600CE010197F1F7D6
:1003F0001150B0F7DF91CF911F9108951F9310E036
:10040000812F60E040E00E9436001F5F1830C1F786
:100410001F9108951F93CF93DF9317E0C8ECD0E0AE
:10042000812F60E041E00E94360084EF91E0FE0100
:100430003197F1F70197D9F7115090F70E94FE011B
:1004400084EF91E028EC30E0F9013197F1F7019762
:10045000D9F7DF91CF911F9108951F93CF93DF9329
:1004600010E0C8ECD0E0812F60E041E00E9436004F
:1004700084EF91E0FE013197F1F70197D9F71F5F03
:10048000183089F70E94FE0184EF91E028EC30E0FB
:10049000F9013197F1F70197D9F7DF91CF911F91CA
:1004A00008950F931F93CF93DF9313E007E0C8ECF9
:1004B000D0E0812F60E041E00E943600802F811B58
:1004C00060E041E00E94360080E991E0FE01319752
:1004D000F1F70197D9F7112311F01150EACF0E94DB
:1004E000FE0180E49CE90197F1F7DF91CF911F9124
:1004F0000F9108950F931F93CF93DF9310E007E0C0
:10050000C8ECD0E0812F60E041E00E943600802FEF
:10051000811B60E041E00E94360080E991E0FE012D
:100520003197F1F70197D9F7133019F01F5F1430A5
:1005300049F70E94FE0180E49CE90197F1F7DF9101
:10054000CF911F910F9108951F9310E0812F60E0CC
:1005500041E00E9436001F5F1830C1F71F910895D7
:100560000E94A40280E991E028EC30E0F901319783
:10057000F1F70197D9F70E94FE0180E991E028EC9C
:1005800030E0F9013197F1F70197D9F708951F93FA
:1005900010E0812F60E041E00E94B0001F5F183042
:1005A000C1F71F910895CF93DF930E94C702C8EC53
:1005B000D0E00E94A40280ED97E0FE013197F1F7B0
:1005C0000197D9F70E94FE0180ED97E0FE01319777
:1005D000F1F70197D9F70E94B00280ED97E0FE0194
:1005E0003197F1F70197D9F70E94DC0180ED97E090
:1005F000FE013197F1F70197D9F70E947A0280ED59
:1006000097E0FE013197F1F70197D9F70E94510267
:1006100080ED97E0FE013197F1F70197D9F70E943D
:100620002D0280ED97E0FE013197F1F70197D9F7A0
:100630000E940A0280ED97E0FE013197F1F70197E1
:10064000D9F70E94A60180ED97E0FE013197F1F7FE
:0A0650000197D9F7AECFF894FFCF61
:00000001FF
