:100000000C942A000C9434000C945A060C9434007E
:100010000C9434000C9434000C9434000C94340090
:100020000C9434000C9434000C9434000C94340080
:100030000C9434000C9434000C9434000C94340070
:100040000C9434000C9434000C9434000C94340060
:100050000C94340011241FBECFE5D8E0DEBFCDBF25
:100060000E9442060C9486060C940000DF93CF9306
:10007000CDB7DEB727970FB6F894DEBF0FBECDBF62
:1000800089836A834B838981883008F0EEC08A8136
:10009000843008F0EAC08B81813009F06FC08A811A
:1000A000282F30E03F832E838E819F818130910500
:1000B00049F12E813F81223031052CF48E819F81C0
:1000C000009761F0D2C02E813F812230310571F15D
:1000D0008E819F8183309105E9F1C7C0ABE3B0E029
:1000E000EBE3F0E08081482F8981282F30E081E028
:1000F00090E0022E02C0880F991F0A94E2F7842B29
:100100008C93B3C0A8E3B0E0E8E3F0E08081482F2F
:100110008981282F30E081E090E0022E02C0880F14
:10012000991F0A94E2F7842B8C939FC0A5E3B0E05B
:10013000E5E3F0E08081482F8981282F30E081E0DD
:1001400090E0022E02C0880F991F0A94E2F7842BD8
:100150008C938BC0A2E3B0E0E2E3F0E08081482F13
:100160008981282F30E081E090E0022E02C0880FC4
:10017000991F0A94E2F7842B8C9377C08B81882394
:1001800009F073C08A81282F30E03D832C838C8155
:100190009D818130910559F12C813D8122303105BD
:1001A0002CF48C819D81009769F05FC02C813D818A
:1001B0002230310589F18C819D818330910509F4CC
:1001C00040C053C0ABE3B0E0EBE3F0E08081482FE8
:1001D0008981282F30E081E090E0022E02C0880F54
:1001E000991F0A94E2F7809584238C933EC0A8E37C
:1001F000B0E0E8E3F0E08081482F8981282F30E0EB
:1002000081E090E0022E02C0880F991F0A94E2F765
:10021000809584238C9329C0A5E3B0E0E5E3F0E06A
:100220008081482F8981282F30E081E090E0022EE4
:1002300002C0880F991F0A94E2F7809584238C935B
:1002400014C0A2E3B0E0E2E3F0E08081482F8981AE
:10025000282F30E081E090E0022E02C0880F991F25
:100260000A94E2F7809584238C9327960FB6F8942E
:10027000DEBF0FBECDBFCF91DF910895DF93CF9347
:10028000CDB7DEB727970FB6F894DEBF0FBECDBF50
:1002900089836A834B838981883008F0EEC08A8124
:1002A000843008F0EAC08B81813009F06FC08A8108
:1002B000282F30E03F832E838E819F8181309105EE
:1002C00049F12E813F81223031052CF48E819F81AE
:1002D000009761F0D2C02E813F812230310571F14B
:1002E0008E819F8183309105E9F1C7C0AAE3B0E018
:1002F000EAE3F0E08081482F8981282F30E081E017
:1003000090E0022E02C0880F991F0A94E2F7842B16
:100310008C93B3C0A7E3B0E0E7E3F0E08081482F1F
:100320008981282F30E081E090E0022E02C0880F02
:10033000991F0A94E2F7842B8C939FC0A4E3B0E04A
:10034000E4E3F0E08081482F8981282F30E081E0CC
:1003500090E0022E02C0880F991F0A94E2F7842BC6
:100360008C938BC0A1E3B0E0E1E3F0E08081482F03
:100370008981282F30E081E090E0022E02C0880FB2
:10038000991F0A94E2F7842B8C9377C08B81882382
:1003900009F073C08A81282F30E03D832C838C8143
:1003A0009D818130910559F12C813D8122303105AB
:1003B0002CF48C819D81009769F05FC02C813D8178
:1003C0002230310589F18C819D818330910509F4BA
:1003D00040C053C0AAE3B0E0EAE3F0E08081482FD8
:1003E0008981282F30E081E090E0022E02C0880F42
:1003F000991F0A94E2F7809584238C933EC0A7E36B
:10040000B0E0E7E3F0E08081482F8981282F30E0D9
:1004100081E090E0022E02C0880F991F0A94E2F753
:10042000809584238C9329C0A4E3B0E0E4E3F0E05A
:100430008081482F8981282F30E081E090E0022ED2
:1004400002C0880F991F0A94E2F7809584238C9349
:1004500014C0A1E3B0E0E1E3F0E08081482F89819E
:10046000282F30E081E090E0022E02C0880F991F13
:100470000A94E2F7809584238C9327960FB6F8941C
:10048000DEBF0FBECDBFCF91DF910895DF93CF9335
:10049000CDB7DEB728970FB6F894DEBF0FBECDBF3D
:1004A00089836A838981843008F09AC08A81813087
:1004B00099F58981282F30E038872F838F8198859F
:1004C00081309105D1F02F813885223031052CF40F
:1004D0008F819885009761F083C02F813885223005
:1004E000310581F08F8198858330910581F078C046
:1004F000EBE3F0E08FEF808373C0E8E3F0E08FEF91
:1005000080836EC0E5E3F0E08FEF808369C0E2E3B3
:10051000F0E08FEF808364C08A81882379F5898138
:10052000282F30E03E832D838D819E81813091057F
:10053000C9F02D813E81223031052CF48D819E81C0
:10054000009761F04DC02D813E812230310571F060
:100550008D819E818330910569F042C0EBE3F0E02C
:1005600010823EC0E8E3F0E010823AC0E5E3F0E03C
:10057000108236C0E2E3F0E0108232C08981282F79
:1005800030E03C832B838B819C8181309105D1F0BD
:100590002B813C81223031052CF48B819C8100978A
:1005A00061F01EC02B813C812230310581F08B81AE
:1005B0009C818330910581F013C0EBE3F0E08A81E8
:1005C00080830EC0E8E3F0E08A81808309C0E5E320
:1005D000F0E08A81808304C0E2E3F0E08A818083D6
:1005E00028960FB6F894DEBF0FBECDBFCF91DF9136
:1005F0000895DF93CF93CDB7DEB728970FB6F89461
:10060000DEBF0FBECDBF89836A838981843008F045
:100610009AC08A81813099F58981282F30E0388706
:100620002F838F81988581309105D1F02F81388576
:10063000223031052CF48F819885009761F083C0BA
:100640002F8138852230310581F08F819885833064
:10065000910581F078C0EAE3F0E08FEF808373C00A
:10066000E7E3F0E08FEF80836EC0E4E3F0E08FEF2C
:10067000808369C0E1E3F0E08FEF808364C08A810A
:10068000882379F58981282F30E03E832D838D8161
:100690009E8181309105C9F02D813E812230310546
:1006A0002CF48D819E81009761F04DC02D813E819B
:1006B0002230310571F08D819E818330910569F082
:1006C00042C0EAE3F0E010823EC0E7E3F0E01082CF
:1006D0003AC0E4E3F0E0108236C0E1E3F0E01082DB
:1006E00032C08981282F30E03C832B838B819C8111
:1006F00081309105D1F02B813C81223031052CF4E1
:100700008B819C81009761F01EC02B813C8122303F
:10071000310581F08B819C818330910581F013C07C
:10072000EAE3F0E08A8180830EC0EAE3F0E08A81A8
:10073000808309C0EAE3F0E08A81808304C0EAE3B1
:10074000F0E08A81808328960FB6F894DEBF0FBE52
:10075000CDBFCF91DF910895DF93CF9300D000D02C
:100760000F92CDB7DEB78A836B838A81883008F019
:100770006BC08B81843008F067C08B81282F30E0FC
:100780003D832C834C815D814130510541F18C8149
:100790009D818230910534F42C813D8121153105F4
:1007A00061F052C04C815D814230510551F18C8124
:1007B0009D8183309105B9F147C0E9E3F0E0808184
:1007C000282F30E08A81882F90E0A90102C055953A
:1007D00047958A95E2F7CA018170898335C0E6E3BF
:1007E000F0E08081282F30E08A81882F90E0A901F5
:1007F00002C0559547958A95E2F7CA0181708983B1
:1008000023C0E3E3F0E08081282F30E08A81882F45
:1008100090E0A90102C0559547958A95E2F7CA0173
:100820008170898311C0E0E3F0E08081282F30E0FF
:100830008A81882F90E0A90102C0559547958A9535
:10084000E2F7CA018170898389810F900F900F9020
:100850000F900F90CF91DF910895DF93CF9300D049
:1008600000D0CDB7DEB789836A838981883008F0EC
:1008700072C08A81843008F06EC08A81282F30E0EF
:100880003C832B838B819C818130910549F12B81A5
:100890003C81223031052CF48B819C81009761F0E2
:1008A0005AC02B813C812230310571F18B819C81B2
:1008B00083309105E9F14FC0ABE3B0E0EBE3F0E04A
:1008C0008081482F8981282F30E081E090E0022E3E
:1008D00002C0880F991F0A94E2F784278C933BC0CB
:1008E000A8E3B0E0E8E3F0E08081482F8981282F79
:1008F00030E081E090E0022E02C0880F991F0A9438
:10090000E2F784278C9327C0A5E3B0E0E5E3F0E0AD
:100910008081482F8981282F30E081E090E0022EED
:1009200002C0880F991F0A94E2F784278C9313C0A2
:10093000A2E3B0E0E2E3F0E08081482F8981282F34
:1009400030E081E090E0022E02C0880F991F0A94E7
:10095000E2F784278C930F900F900F900F90CF9118
:10096000DF910895DF93CF93CDB7DEB728970FB609
:10097000F894DEBF0FBECDBF89836A83898183303F
:1009800008F0E7C08A81843008F0E3C00E942606A0
:1009900089810E94B2058981882309F05BC08A8120
:1009A000282F30E038872F838F81988581309105FB
:1009B00021F12F813885223031052CF48F819885E3
:1009C000009761F0C6C02F8138852230310521F1B2
:1009D0008F8198858330910571F1BBC0A5E5B0E0AA
:1009E000E5E5F0E0808181608C93A5E5B0E0E5E588
:1009F000F0E0808182608C93ACC0A5E5B0E0E5E5D5
:100A0000F0E080818E7F8C93A5E5B0E0E5E5F0E035
:100A1000808182608C939DC0A5E5B0E0E5E5F0E0C3
:100A200080818E7F8C93A5E5B0E0E5E5F0E08081E4
:100A30008D7F8C938EC0A5E5B0E0E5E5F0E0808188
:100A400081608C93A5E5B0E0E5E5F0E080818D7FE5
:100A50008C937FC08981813009F05BC08A81282F07
:100A600030E03E832D838D819E818130910521F17F
:100A70002D813E81223031052CF48D819E8100979D
:100A800061F067C02D813E812230310521F18D81D9
:100A90009E818330910571F15CC0A5E5B0E0E5E58C
:100AA000F0E0808184608C93A5E5B0E0E5E5F0E0BE
:100AB000808188608C934DC0A5E5B0E0E5E5F0E06D
:100AC00080818B7F8C93A5E5B0E0E5E5F0E0808147
:100AD00088608C933EC0A5E5B0E0E5E5F0E080815C
:100AE0008B7F8C93A5E5B0E0E5E5F0E08081877F22
:100AF0008C932FC0A5E5B0E0E5E5F0E0808184604F
:100B00008C93A5E5B0E0E5E5F0E08081877F8C93EC
:100B100020C089818230E9F48A81282F30E03C832B
:100B20002B838B819C81009769F02B813C81213044
:100B3000310579F4A4E5B0E0E4E5F0E080818F7B55
:100B40008C9307C0A4E5B0E0E4E5F0E08081806428
:100B50008C9328960FB6F894DEBF0FBECDBFCF9111
:100B6000DF910895DF93CF9300D00F92CDB7DEB71A
:100B700089838981833050F58981282F30E03B8338
:100B80002A838A819B818130910589F02A813B816A
:100B900022303105A1F08A819B810097B9F4ABE541
:100BA000B0E0EBE5F0E0808180648C930FC0ABE5B2
:100BB000B0E0EBE5F0E0808180688C9307C0ABE5A6
:100BC000B0E0EBE5F0E0808180628C930F900F90B5
:100BD0000F90CF91DF910895DF93CF9300D00F92C4
:100BE000CDB7DEB789838981833050F58981282F7D
:100BF00030E03B832A838A819B818130910589F093
:100C00002A813B8122303105A1F08A819B810097A6
:100C1000B9F4ABE5B0E0EBE5F0E080818F7B8C933D
:100C20000FC0ABE5B0E0EBE5F0E080818F778C930F
:100C300007C0ABE5B0E0EBE5F0E080818F7D8C9301
:100C40000F900F900F90CF91DF910895DF93CF9386
:100C5000CDB7DEB7AFE5B0E0EFE5F0E080818068CA
:100C60008C93CF91DF910895DF93CF93CDB7DEB70B
:100C7000AFE5B0E0EFE5F0E080818F778C93CF9126
:100C8000DF910895DF93CF93CDB7DEB787E061E0C2
:100C900041E00E943E0183E063E040E00E943E01AB
:100CA00083E063E041E00E94360081E062E00E9460
:100CB000B204FFCF1F920F920FB60F9211242F9301
:100CC0003F934F935F936F937F938F939F93AF93D4
:100CD000BF93EF93FF93DF93CF93CDB7DEB787E05A
:100CE00061E00E942D04CF91DF91FF91EF91BF91C0
:100CF000AF919F918F917F916F915F914F913F91B4
:100D00002F910F900FBE0F901F901895F894FFCF62
:00000001FF
