:100000000C942A000C9434000C9434000C943400AA
:100010000C9434000C9434000C9434000C94340090
:100020000C9434000C9434000C9434000C94340080
:100030000C9434000C9434000C9434000C94340070
:100040000C9434000C9434000C9434000C94340060
:100050000C94340011241FBECFE5D8E0DEBFCDBF25
:100060000E94A6010C940D020C940000382F8830D9
:1000700008F075C0643008F072C04130B1F56130ED
:1000800099F0613030F06230D1F0633009F067C030
:1000900021C02BB381E090E002C0880F991F3A95F0
:1000A000E2F7282B2BBB089528B381E090E002C033
:1000B000880F991F3A95E2F7282B28BB089525B39E
:1000C00081E090E002C0880F991F3A95E2F7282B53
:1000D00025BB089522B381E090E002C0880F991FEC
:1000E0003A95E2F7282B22BB08954423C1F56130ED
:1000F00099F0613028F06230D9F0633081F524C086
:100100002BB381E090E002C0880F991F3A95E2F787
:10011000809582238BBB089528B381E090E002C0D4
:10012000880F991F3A95E2F78095822388BB08953E
:1001300025B381E090E002C0880F991F3A95E2F75D
:100140008095822385BB089522B381E090E002C0B0
:10015000880F991F3A95E2F78095822382BB089514
:10016000382F883008F075C0643008F072C0413014
:10017000B1F5613099F0613030F06230D1F0633028
:1001800009F067C021C02AB381E090E002C0880F67
:10019000991F3A95E2F7282B2ABB089527B381E0EF
:1001A00090E002C0880F991F3A95E2F7282B27BBF1
:1001B000089524B381E090E002C0880F991F3A951A
:1001C000E2F7282B24BB089521B381E090E002C020
:1001D000880F991F3A95E2F7282B21BB08954423F5
:1001E000C1F5613099F0613028F06230D9F06330A8
:1001F00081F524C02AB381E090E002C0880F991FE6
:100200003A95E2F7809582238ABB089527B381E06F
:1002100090E002C0880F991F3A95E2F780958223FB
:1002200087BB089524B381E090E002C0880F991F36
:100230003A95E2F78095822384BB089521B381E04B
:1002400090E002C0880F991F3A95E2F780958223CB
:1002500081BB0895843048F56130A9F4813051F0B4
:10026000813028F0823049F08330F9F409C08FEFF3
:100270008BBB08958FEF88BB08958FEF85BB0895E2
:100280008FEF82BB0895662381F4813049F081307D
:1002900028F0823039F0833041F406C01BBA08954B
:1002A00018BA089515BA089512BA0895843048F519
:1002B0006130A9F4813051F0813028F0823049F06A
:1002C0008330F9F409C08FEF8ABB08958FEF87BBA5
:1002D00008958FEF84BB08958FEF81BB0895662347
:1002E00081F4813049F0813028F0823039F0833058
:1002F00041F406C01ABA089517BA089514BA0895B9
:1003000011BA0895282F883000F56430F0F4613078
:1003100049F0613028F0623039F06330B1F40DC03B
:1003200089B303C086B301C083B390E002C0959542
:1003300087952A95E2F78170089580B390E002C016
:10034000959587952A95E2F781700895CF93DF936D
:1003500080E061E00E945601C8ECD0E080E060E0FF
:1003600041E00E94360081E060E041E00E943600FA
:1003700082E060E041E00E94360083E060E041E01E
:100380000E94360084E060E041E00E94360085E093
:1003900060E041E00E94360086E060E041E00E94BB
:1003A000360087E060E041E00E94360088EE93E08E
:1003B000FE013197F1F70197D9F780E060E040E066
:1003C0000E94360081E060E040E00E94360082E05A
:1003D00060E040E00E94360083E060E040E00E9480
:1003E000360084E060E040E00E94360085E060E096
:1003F00040E00E94360086E060E040E00E94360067
:1004000087E060E040E00E94360088EE93E0FE0165
:0E0410003197F1F70197D9F7A1CFF894FFCFFC
:00000001FF
